{"project/contracts/ApexBotRegistry.sol":{"ApexBotRegistry":{"abi":[{"inputs":[],"stateMutability":"nonpayable","type":"constructor"},{"anonymous":false,"inputs":[{"indexed":true,"internalType":"address","name":"botAddress","type":"address"},{"indexed":false,"internalType":"string","name":"pattern","type":"string"},{"indexed":false,"internalType":"uint256","name":"confidence","type":"uint256"},{"indexed":true,"internalType":"address","name":"reporter","type":"address"},{"indexed":true,"internalType":"uint256","name":"ledgerIndex","type":"uint256"}],"name":"BotLogged","type":"event"},{"inputs":[{"internalType":"address","name":"","type":"address"}],"name":"agentReputation","outputs":[{"internalType":"uint256","name":"","type":"uint256"}],"stateMutability":"view","type":"function"},{"inputs":[{"internalType":"address","name":"_reporter","type":"address"}],"name":"authorizeReporter","outputs":[],"stateMutability":"nonpayable","type":"function"},{"inputs":[{"internalType":"address","name":"","type":"address"}],"name":"authorizedReporters","outputs":[{"internalType":"bool","name":"","type":"bool"}],"stateMutability":"view","type":"function"},{"inputs":[{"internalType":"address","name":"_reporter","type":"address"}],"name":"deauthorizeReporter","outputs":[],"stateMutability":"nonpayable","type":"function"},{"inputs":[{"internalType":"address","name":"agent","type":"address"}],"name":"getAgentReputation","outputs":[{"internalType":"uint256","name":"","type":"uint256"}],"stateMutability":"view","type":"function"},{"inputs":[],"name":"getLedgerCount","outputs":[{"internalType":"uint256","name":"","type":"uint256"}],"stateMutability":"view","type":"function"},{"inputs":[{"internalType":"uint256","name":"count","type":"uint256"}],"name":"getRecentBots","outputs":[{"components":[{"internalType":"address","name":"botAddress","type":"address"},{"internalType":"string","name":"txHash","type":"string"},{"internalType":"string","name":"pattern","type":"string"},{"internalType":"uint256","name":"confidence","type":"uint256"},{"internalType":"uint256","name":"timestamp","type":"uint256"},{"internalType":"address","name":"reporter","type":"address"}],"internalType":"struct ApexBotRegistry.BotSignature[]","name":"","type":"tuple[]"}],"stateMutability":"view","type":"function"},{"inputs":[{"internalType":"address","name":"reporter","type":"address"},{"internalType":"address","name":"bot","type":"address"}],"name":"hasReporterLoggedBot","outputs":[{"internalType":"bool","name":"","type":"bool"}],"stateMutability":"view","type":"function"},{"inputs":[{"internalType":"address","name":"","type":"address"}],"name":"isVerifiedBot","outputs":[{"internalType":"bool","name":"","type":"bool"}],"stateMutability":"view","type":"function"},{"inputs":[{"internalType":"uint256","name":"","type":"uint256"}],"name":"ledger","outputs":[{"internalType":"address","name":"botAddress","type":"address"},{"internalType":"string","name":"txHash","type":"string"},{"internalType":"string","name":"pattern","type":"string"},{"internalType":"uint256","name":"confidence","type":"uint256"},{"internalType":"uint256","name":"timestamp","type":"uint256"},{"internalType":"address","name":"reporter","type":"address"}],"stateMutability":"view","type":"function"},{"inputs":[{"internalType":"address","name":"_botAddress","type":"address"},{"internalType":"string","name":"_txHash","type":"string"},{"internalType":"string","name":"_pattern","type":"string"},{"internalType":"uint256","name":"_confidence","type":"uint256"}],"name":"logBot","outputs":[],"stateMutability":"nonpayable","type":"function"},{"inputs":[],"name":"owner","outputs":[{"internalType":"address","name":"","type":"address"}],"stateMutability":"view","type":"function"},{"inputs":[],"name":"withdraw","outputs":[],"stateMutability":"nonpayable","type":"function"},{"stateMutability":"payable","type":"receive"}],"evm":{"bytecode":{"linkReferences":{},"object":"608060405234801561000f575f80fd5b505f80546001600160a01b0319163390811782558152600160208190526040909120805460ff19169091179055611097806100495f395ff3fe6080604052600436106100c2575f3560e01c80638da5cb5b1161007c578063c0d4d74011610057578063c0d4d7401461023b578063ce5bbe1a1461025a578063d277199714610286578063ebeae587146102b4575f80fd5b80638da5cb5b146101d25780639b5b6ddc14610208578063a94cdd5414610227575f80fd5b806310a7fd7b146100cd57806328483673146101075780632f083470146101285780633a41429a146101575780633ccfd60b1461018557806354de6e3214610199575f80fd5b366100c957005b5f80fd5b3480156100d8575f80fd5b506100ec6100e7366004610b74565b6102e8565b6040516100fe96959493929190610bce565b60405180910390f35b348015610112575f80fd5b50610126610121366004610c3d565b61044f565b005b348015610133575f80fd5b50610147610142366004610c5d565b6104a1565b60405190151581526020016100fe565b348015610162575f80fd5b50610147610171366004610c3d565b60016020525f908152604090205460ff1681565b348015610190575f80fd5b506101266104d0565b3480156101a4575f80fd5b506101c46101b3366004610c3d565b60046020525f908152604090205481565b6040519081526020016100fe565b3480156101dd575f80fd5b505f546101f0906001600160a01b031681565b6040516001600160a01b0390911681526020016100fe565b348015610213575f80fd5b50610126610222366004610c3d565b6105d6565b348015610232575f80fd5b506003546101c4565b348015610246575f80fd5b50610126610255366004610d2b565b610625565b348015610265575f80fd5b50610279610274366004610b74565b6108eb565b6040516100fe9190610da2565b348015610291575f80fd5b506101476102a0366004610c3d565b60026020525f908152604090205460ff1681565b3480156102bf575f80fd5b506101c46102ce366004610c3d565b6001600160a01b03165f9081526004602052604090205490565b600381815481106102f7575f80fd5b5f918252602090912060069091020180546001820180546001600160a01b0390921693509061032590610e61565b80601f016020809104026020016040519081016040528092919081815260200182805461035190610e61565b801561039c5780601f106103735761010080835404028352916020019161039c565b820191905f5260205f20905b81548152906001019060200180831161037f57829003601f168201915b5050505050908060020180546103b190610e61565b80601f01602080910402602001604051908101604052809291908181526020018280546103dd90610e61565b80156104285780601f106103ff57610100808354040283529160200191610428565b820191905f5260205f20905b81548152906001019060200180831161040b57829003601f168201915b5050505060038301546004840154600590940154929390929091506001600160a01b031686565b5f546001600160a01b031633146104815760405162461bcd60e51b815260040161047890610e99565b60405180910390fd5b6001600160a01b03165f908152600160205260409020805460ff19169055565b6001600160a01b038083165f9081526005602090815260408083209385168352929052205460ff165b92915050565b5f546001600160a01b031633146104f95760405162461bcd60e51b815260040161047890610e99565b478061053e5760405162461bcd60e51b81526020600482015260146024820152734e6f2066756e647320746f20776974686472617760601b6044820152606401610478565b5f80546040516001600160a01b039091169083908381818185875af1925050503d805f8114610588576040519150601f19603f3d011682016040523d82523d5f602084013e61058d565b606091505b50509050806105d25760405162461bcd60e51b815260206004820152601160248201527015da5d1a191c985dd85b0819985a5b1959607a1b6044820152606401610478565b5050565b5f546001600160a01b031633146105ff5760405162461bcd60e51b815260040161047890610e99565b6001600160a01b03165f908152600160208190526040909120805460ff19169091179055565b335f9081526001602052604090205460ff166106945760405162461bcd60e51b815260206004820152602860248201527f4e6f7420617574686f72697a65643a205265706f72746572206e6f74207768696044820152671d195b1a5cdd195960c21b6064820152608401610478565b6001600160a01b0384166106e05760405162461bcd60e51b8152602060048201526013602482015272496e76616c696420626f74206164647265737360681b6044820152606401610478565b60648111156107315760405162461bcd60e51b815260206004820152601860248201527f436f6e666964656e6365206d75737420626520302d31303000000000000000006044820152606401610478565b6040805160c0810182526001600160a01b03868116825260208201868152928201859052606082018490524260808301523360a0830152600380546001810182555f9190915282517fc2575a0e9e593c00f959f8c92f12db2869c3395a3b0502d05e2516446f71f85b6006830290810180546001600160a01b031916929094169190911783559351929390928492917fc2575a0e9e593c00f959f8c92f12db2869c3395a3b0502d05e2516446f71f85c01906107ed9082610f1e565b50604082015160028201906108029082610f1e565b5060608201516003820155608082015160048083019190915560a090920151600590910180546001600160a01b0319166001600160a01b0392831617905587165f908152600260209081526040808320805460ff1916600117905533835292905290812080549161087283610fee565b9091555050335f8181526005602090815260408083206001600160a01b038b16808552925291829020805460ff191660011790559051839291907f1e51fac8bde7c68d71cdd79db2b1760b82bd12db17012239cce8b88ec4fb50da906108db9089908990611006565b60405180910390a4505050505050565b600354606090808311156108fd578092505b5f8367ffffffffffffffff81111561091757610917610c8e565b60405190808252806020026020018201604052801561098f57816020015b61097c6040518060c001604052805f6001600160a01b0316815260200160608152602001606081526020015f81526020015f81526020015f6001600160a01b031681525090565b8152602001906001900390816109355790505b5090505f5b84811015610b6c576003816109a98786611027565b6109b3919061103a565b815481106109c3576109c361104d565b5f9182526020918290206040805160c0810190915260069092020180546001600160a01b031682526001810180549293919291840191610a0290610e61565b80601f0160208091040260200160405190810160405280929190818152602001828054610a2e90610e61565b8015610a795780601f10610a5057610100808354040283529160200191610a79565b820191905f5260205f20905b815481529060010190602001808311610a5c57829003601f168201915b50505050508152602001600282018054610a9290610e61565b80601f0160208091040260200160405190810160405280929190818152602001828054610abe90610e61565b8015610b095780601f10610ae057610100808354040283529160200191610b09565b820191905f5260205f20905b815481529060010190602001808311610aec57829003601f168201915b505050918352505060038201546020820152600482015460408201526005909101546001600160a01b03166060909101528251839083908110610b4e57610b4e61104d565b60200260200101819052508080610b6490610fee565b915050610994565b509392505050565b5f60208284031215610b84575f80fd5b5035919050565b5f81518084525f5b81811015610baf57602081850181015186830182015201610b93565b505f602082860101526020601f19601f83011685010191505092915050565b5f60018060a01b03808916835260c06020840152610bef60c0840189610b8b565b8381036040850152610c018189610b8b565b606085019790975250608083019490945250911660a0909101529392505050565b80356001600160a01b0381168114610c38575f80fd5b919050565b5f60208284031215610c4d575f80fd5b610c5682610c22565b9392505050565b5f8060408385031215610c6e575f80fd5b610c7783610c22565b9150610c8560208401610c22565b90509250929050565b634e487b7160e01b5f52604160045260245ffd5b5f82601f830112610cb1575f80fd5b813567ffffffffffffffff80821115610ccc57610ccc610c8e565b604051601f8301601f19908116603f01168101908282118183101715610cf457610cf4610c8e565b81604052838152866020858801011115610d0c575f80fd5b836020870160208301375f602085830101528094505050505092915050565b5f805f8060808587031215610d3e575f80fd5b610d4785610c22565b9350602085013567ffffffffffffffff80821115610d63575f80fd5b610d6f88838901610ca2565b94506040870135915080821115610d84575f80fd5b50610d9187828801610ca2565b949793965093946060013593505050565b5f6020808301818452808551808352604092508286019150828160051b8701018488015f5b83811015610e5357888303603f19018552815180516001600160a01b0390811685528882015160c08a87018190529190610e0383880182610b8b565b925050888301518683038a880152610e1b8382610b8b565b606085810151908901526080808601519089015260a09485015190921693909601929092525094870194925090860190600101610dc7565b509098975050505050505050565b600181811c90821680610e7557607f821691505b602082108103610e9357634e487b7160e01b5f52602260045260245ffd5b50919050565b6020808252601a908201527f4e6f7420617574686f72697a65643a204f776e6572206f6e6c79000000000000604082015260600190565b601f821115610f19575f81815260208120601f850160051c81016020861015610ef65750805b601f850160051c820191505b81811015610f1557828155600101610f02565b5050505b505050565b815167ffffffffffffffff811115610f3857610f38610c8e565b610f4c81610f468454610e61565b84610ed0565b602080601f831160018114610f7f575f8415610f685750858301515b5f19600386901b1c1916600185901b178555610f15565b5f85815260208120601f198616915b82811015610fad57888601518255948401946001909101908401610f8e565b5085821015610fca57878501515f19600388901b60f8161c191681555b5050505050600190811b01905550565b634e487b7160e01b5f52601160045260245ffd5b5f60018201610fff57610fff610fda565b5060010190565b604081525f6110186040830185610b8b565b90508260208301529392505050565b818103818111156104ca576104ca610fda565b808201808211156104ca576104ca610fda565b634e487b7160e01b5f52603260045260245ffdfea26469706673582212205bf7bbb250a588654bb6d122b64719cecdd119527142129b8475dc627830101164736f6c63430008140033","opcodes":"PUSH1 0x80 PUSH1 0x40 MSTORE CALLVALUE DUP1 ISZERO PUSH2 0xF JUMPI PUSH0 DUP1 REVERT JUMPDEST POP PUSH0 DUP1 SLOAD PUSH1 0x1 PUSH1 0x1 PUSH1 0xA0 SHL SUB NOT AND CALLER SWAP1 DUP2 OR DUP3 SSTORE DUP2 MSTORE PUSH1 0x1 PUSH1 0x20 DUP2 SWAP1 MSTORE PUSH1 0x40 SWAP1 SWAP2 KECCAK256 DUP1 SLOAD PUSH1 0xFF NOT AND SWAP1 SWAP2 OR SWAP1 SSTORE PUSH2 0x1097 DUP1 PUSH2 0x49 PUSH0 CODECOPY PUSH0 RETURN INVALID PUSH1 0x80 PUSH1 0x40 MSTORE PUSH1 0x4 CALLDATASIZE LT PUSH2 0xC2 JUMPI PUSH0 CALLDATALOAD PUSH1 0xE0 SHR DUP1 PUSH4 0x8DA5CB5B GT PUSH2 0x7C JUMPI DUP1 PUSH4 0xC0D4D740 GT PUSH2 0x57 JUMPI DUP1 PUSH4 0xC0D4D740 EQ PUSH2 0x23B JUMPI DUP1 PUSH4 0xCE5BBE1A EQ PUSH2 0x25A JUMPI DUP1 PUSH4 0xD2771997 EQ PUSH2 0x286 JUMPI DUP1 PUSH4 0xEBEAE587 EQ PUSH2 0x2B4 JUMPI PUSH0 DUP1 REVERT JUMPDEST DUP1 PUSH4 0x8DA5CB5B EQ PUSH2 0x1D2 JUMPI DUP1 PUSH4 0x9B5B6DDC EQ PUSH2 0x208 JUMPI DUP1 PUSH4 0xA94CDD54 EQ PUSH2 0x227 JUMPI PUSH0 DUP1 REVERT JUMPDEST DUP1 PUSH4 0x10A7FD7B EQ PUSH2 0xCD JUMPI DUP1 PUSH4 0x28483673 EQ PUSH2 0x107 JUMPI DUP1 PUSH4 0x2F083470 EQ PUSH2 0x128 JUMPI DUP1 PUSH4 0x3A41429A EQ PUSH2 0x157 JUMPI DUP1 PUSH4 0x3CCFD60B EQ PUSH2 0x185 JUMPI DUP1 PUSH4 0x54DE6E32 EQ PUSH2 0x199 JUMPI PUSH0 DUP1 REVERT JUMPDEST CALLDATASIZE PUSH2 0xC9 JUMPI STOP JUMPDEST PUSH0 DUP1 REVERT JUMPDEST CALLVALUE DUP1 ISZERO PUSH2 0xD8 JUMPI PUSH0 DUP1 REVERT JUMPDEST POP PUSH2 0xEC PUSH2 0xE7 CALLDATASIZE PUSH1 0x4 PUSH2 0xB74 JUMP JUMPDEST PUSH2 0x2E8 JUMP JUMPDEST PUSH1 0x40 MLOAD PUSH2 0xFE SWAP7 SWAP6 SWAP5 SWAP4 SWAP3 SWAP2 SWAP1 PUSH2 0xBCE JUMP JUMPDEST PUSH1 0x40 MLOAD DUP1 SWAP2 SUB SWAP1 RETURN JUMPDEST CALLVALUE DUP1 ISZERO PUSH2 0x112 JUMPI PUSH0 DUP1 REVERT JUMPDEST POP PUSH2 0x126 PUSH2 0x121 CALLDATASIZE PUSH1 0x4 PUSH2 0xC3D JUMP JUMPDEST PUSH2 0x44F JUMP JUMPDEST STOP JUMPDEST CALLVALUE DUP1 ISZERO PUSH2 0x133 JUMPI PUSH0 DUP1 REVERT JUMPDEST POP PUSH2 0x147 PUSH2 0x142 CALLDATASIZE PUSH1 0x4 PUSH2 0xC5D JUMP JUMPDEST PUSH2 0x4A1 JUMP JUMPDEST PUSH1 0x40 MLOAD SWAP1 ISZERO ISZERO DUP2 MSTORE PUSH1 0x20 ADD PUSH2 0xFE JUMP JUMPDEST CALLVALUE DUP1 ISZERO PUSH2 0x162 JUMPI PUSH0 DUP1 REVERT JUMPDEST POP PUSH2 0x147 PUSH2 0x171 CALLDATASIZE PUSH1 0x4 PUSH2 0xC3D JUMP JUMPDEST PUSH1 0x1 PUSH1 0x20 MSTORE PUSH0 SWAP1 DUP2 MSTORE PUSH1 0x40 SWAP1 KECCAK256 SLOAD PUSH1 0xFF AND DUP2 JUMP JUMPDEST CALLVALUE DUP1 ISZERO PUSH2 0x190 JUMPI PUSH0 DUP1 REVERT JUMPDEST POP PUSH2 0x126 PUSH2 0x4D0 JUMP JUMPDEST CALLVALUE DUP1 ISZERO PUSH2 0x1A4 JUMPI PUSH0 DUP1 REVERT JUMPDEST POP PUSH2 0x1C4 PUSH2 0x1B3 CALLDATASIZE PUSH1 0x4 PUSH2 0xC3D JUMP JUMPDEST PUSH1 0x4 PUSH1 0x20 MSTORE PUSH0 SWAP1 DUP2 MSTORE PUSH1 0x40 SWAP1 KECCAK256 SLOAD DUP2 JUMP JUMPDEST PUSH1 0x40 MLOAD SWAP1 DUP2 MSTORE PUSH1 0x20 ADD PUSH2 0xFE JUMP JUMPDEST CALLVALUE DUP1 ISZERO PUSH2 0x1DD JUMPI PUSH0 DUP1 REVERT JUMPDEST POP PUSH0 SLOAD PUSH2 0x1F0 SWAP1 PUSH1 0x1 PUSH1 0x1 PUSH1 0xA0 SHL SUB AND DUP2 JUMP JUMPDEST PUSH1 0x40 MLOAD PUSH1 0x1 PUSH1 0x1 PUSH1 0xA0 SHL SUB SWAP1 SWAP2 AND DUP2 MSTORE PUSH1 0x20 ADD PUSH2 0xFE JUMP JUMPDEST CALLVALUE DUP1 ISZERO PUSH2 0x213 JUMPI PUSH0 DUP1 REVERT JUMPDEST POP PUSH2 0x126 PUSH2 0x222 CALLDATASIZE PUSH1 0x4 PUSH2 0xC3D JUMP JUMPDEST PUSH2 0x5D6 JUMP JUMPDEST CALLVALUE DUP1 ISZERO PUSH2 0x232 JUMPI PUSH0 DUP1 REVERT JUMPDEST POP PUSH1 0x3 SLOAD PUSH2 0x1C4 JUMP JUMPDEST CALLVALUE DUP1 ISZERO PUSH2 0x246 JUMPI PUSH0 DUP1 REVERT JUMPDEST POP PUSH2 0x126 PUSH2 0x255 CALLDATASIZE PUSH1 0x4 PUSH2 0xD2B JUMP JUMPDEST PUSH2 0x625 JUMP JUMPDEST CALLVALUE DUP1 ISZERO PUSH2 0x265 JUMPI PUSH0 DUP1 REVERT JUMPDEST POP PUSH2 0x279 PUSH2 0x274 CALLDATASIZE PUSH1 0x4 PUSH2 0xB74 JUMP JUMPDEST PUSH2 0x8EB JUMP JUMPDEST PUSH1 0x40 MLOAD PUSH2 0xFE SWAP2 SWAP1 PUSH2 0xDA2 JUMP JUMPDEST CALLVALUE DUP1 ISZERO PUSH2 0x291 JUMPI PUSH0 DUP1 REVERT JUMPDEST POP PUSH2 0x147 PUSH2 0x2A0 CALLDATASIZE PUSH1 0x4 PUSH2 0xC3D JUMP JUMPDEST PUSH1 0x2 PUSH1 0x20 MSTORE PUSH0 SWAP1 DUP2 MSTORE PUSH1 0x40 SWAP1 KECCAK256 SLOAD PUSH1 0xFF AND DUP2 JUMP JUMPDEST CALLVALUE DUP1 ISZERO PUSH2 0x2BF JUMPI PUSH0 DUP1 REVERT JUMPDEST POP PUSH2 0x1C4 PUSH2 0x2CE CALLDATASIZE PUSH1 0x4 PUSH2 0xC3D JUMP JUMPDEST PUSH1 0x1 PUSH1 0x1 PUSH1 0xA0 SHL SUB AND PUSH0 SWAP1 DUP2 MSTORE PUSH1 0x4 PUSH1 0x20 MSTORE PUSH1 0x40 SWAP1 KECCAK256 SLOAD SWAP1 JUMP JUMPDEST PUSH1 0x3 DUP2 DUP2 SLOAD DUP2 LT PUSH2 0x2F7 JUMPI PUSH0 DUP1 REVERT JUMPDEST PUSH0 SWAP2 DUP3 MSTORE PUSH1 0x20 SWAP1 SWAP2 KECCAK256 PUSH1 0x6 SWAP1 SWAP2 MUL ADD DUP1 SLOAD PUSH1 0x1 DUP3 ADD DUP1 SLOAD PUSH1 0x1 PUSH1 0x1 PUSH1 0xA0 SHL SUB SWAP1 SWAP3 AND SWAP4 POP SWAP1 PUSH2 0x325 SWAP1 PUSH2 0xE61 JUMP JUMPDEST DUP1 PUSH1 0x1F ADD PUSH1 0x20 DUP1 SWAP2 DIV MUL PUSH1 0x20 ADD PUSH1 0x40 MLOAD SWAP1 DUP2 ADD PUSH1 0x40 MSTORE DUP1 SWAP3 SWAP2 SWAP1 DUP2 DUP2 MSTORE PUSH1 0x20 ADD DUP3 DUP1 SLOAD PUSH2 0x351 SWAP1 PUSH2 0xE61 JUMP JUMPDEST DUP1 ISZERO PUSH2 0x39C JUMPI DUP1 PUSH1 0x1F LT PUSH2 0x373 JUMPI PUSH2 0x100 DUP1 DUP4 SLOAD DIV MUL DUP4 MSTORE SWAP2 PUSH1 0x20 ADD SWAP2 PUSH2 0x39C JUMP JUMPDEST DUP3 ADD SWAP2 SWAP1 PUSH0 MSTORE PUSH1 0x20 PUSH0 KECCAK256 SWAP1 JUMPDEST DUP2 SLOAD DUP2 MSTORE SWAP1 PUSH1 0x1 ADD SWAP1 PUSH1 0x20 ADD DUP1 DUP4 GT PUSH2 0x37F JUMPI DUP3 SWAP1 SUB PUSH1 0x1F AND DUP3 ADD SWAP2 JUMPDEST POP POP POP POP POP SWAP1 DUP1 PUSH1 0x2 ADD DUP1 SLOAD PUSH2 0x3B1 SWAP1 PUSH2 0xE61 JUMP JUMPDEST DUP1 PUSH1 0x1F ADD PUSH1 0x20 DUP1 SWAP2 DIV MUL PUSH1 0x20 ADD PUSH1 0x40 MLOAD SWAP1 DUP2 ADD PUSH1 0x40 MSTORE DUP1 SWAP3 SWAP2 SWAP1 DUP2 DUP2 MSTORE PUSH1 0x20 ADD DUP3 DUP1 SLOAD PUSH2 0x3DD SWAP1 PUSH2 0xE61 JUMP JUMPDEST DUP1 ISZERO PUSH2 0x428 JUMPI DUP1 PUSH1 0x1F LT PUSH2 0x3FF JUMPI PUSH2 0x100 DUP1 DUP4 SLOAD DIV MUL DUP4 MSTORE SWAP2 PUSH1 0x20 ADD SWAP2 PUSH2 0x428 JUMP JUMPDEST DUP3 ADD SWAP2 SWAP1 PUSH0 MSTORE PUSH1 0x20 PUSH0 KECCAK256 SWAP1 JUMPDEST DUP2 SLOAD DUP2 MSTORE SWAP1 PUSH1 0x1 ADD SWAP1 PUSH1 0x20 ADD DUP1 DUP4 GT PUSH2 0x40B JUMPI DUP3 SWAP1 SUB PUSH1 0x1F AND DUP3 ADD SWAP2 JUMPDEST POP POP POP POP PUSH1 0x3 DUP4 ADD SLOAD PUSH1 0x4 DUP5 ADD SLOAD PUSH1 0x5 SWAP1 SWAP5 ADD SLOAD SWAP3 SWAP4 SWAP1 SWAP3 SWAP1 SWAP2 POP PUSH1 0x1 PUSH1 0x1 PUSH1 0xA0 SHL SUB AND DUP7 JUMP JUMPDEST PUSH0 SLOAD PUSH1 0x1 PUSH1 0x1 PUSH1 0xA0 SHL SUB AND CALLER EQ PUSH2 0x481 JUMPI PUSH1 0x40 MLOAD PUSH3 0x461BCD PUSH1 0xE5 SHL DUP2 MSTORE PUSH1 0x4 ADD PUSH2 0x478 SWAP1 PUSH2 0xE99 JUMP JUMPDEST PUSH1 0x40 MLOAD DUP1 SWAP2 SUB SWAP1 REVERT JUMPDEST PUSH1 0x1 PUSH1 0x1 PUSH1 0xA0 SHL SUB AND PUSH0 SWAP1 DUP2 MSTORE PUSH1 0x1 PUSH1 0x20 MSTORE PUSH1 0x40 SWAP1 KECCAK256 DUP1 SLOAD PUSH1 0xFF NOT AND SWAP1 SSTORE JUMP JUMPDEST PUSH1 0x1 PUSH1 0x1 PUSH1 0xA0 SHL SUB DUP1 DUP4 AND PUSH0 SWAP1 DUP2 MSTORE PUSH1 0x5 PUSH1 0x20 SWAP1 DUP2 MSTORE PUSH1 0x40 DUP1 DUP4 KECCAK256 SWAP4 DUP6 AND DUP4 MSTORE SWAP3 SWAP1 MSTORE KECCAK256 SLOAD PUSH1 0xFF AND JUMPDEST SWAP3 SWAP2 POP POP JUMP JUMPDEST PUSH0 SLOAD PUSH1 0x1 PUSH1 0x1 PUSH1 0xA0 SHL SUB AND CALLER EQ PUSH2 0x4F9 JUMPI PUSH1 0x40 MLOAD PUSH3 0x461BCD PUSH1 0xE5 SHL DUP2 MSTORE PUSH1 0x4 ADD PUSH2 0x478 SWAP1 PUSH2 0xE99 JUMP JUMPDEST SELFBALANCE DUP1 PUSH2 0x53E JUMPI PUSH1 0x40 MLOAD PUSH3 0x461BCD PUSH1 0xE5 SHL DUP2 MSTORE PUSH1 0x20 PUSH1 0x4 DUP3 ADD MSTORE PUSH1 0x14 PUSH1 0x24 DUP3 ADD MSTORE PUSH20 0x4E6F2066756E647320746F207769746864726177 PUSH1 0x60 SHL PUSH1 0x44 DUP3 ADD MSTORE PUSH1 0x64 ADD PUSH2 0x478 JUMP JUMPDEST PUSH0 DUP1 SLOAD PUSH1 0x40 MLOAD PUSH1 0x1 PUSH1 0x1 PUSH1 0xA0 SHL SUB SWAP1 SWAP2 AND SWAP1 DUP4 SWAP1 DUP4 DUP2 DUP2 DUP2 DUP6 DUP8 GAS CALL SWAP3 POP POP POP RETURNDATASIZE DUP1 PUSH0 DUP2 EQ PUSH2 0x588 JUMPI PUSH1 0x40 MLOAD SWAP2 POP PUSH1 0x1F NOT PUSH1 0x3F RETURNDATASIZE ADD AND DUP3 ADD PUSH1 0x40 MSTORE RETURNDATASIZE DUP3 MSTORE RETURNDATASIZE PUSH0 PUSH1 0x20 DUP5 ADD RETURNDATACOPY PUSH2 0x58D JUMP JUMPDEST PUSH1 0x60 SWAP2 POP JUMPDEST POP POP SWAP1 POP DUP1 PUSH2 0x5D2 JUMPI PUSH1 0x40 MLOAD PUSH3 0x461BCD PUSH1 0xE5 SHL DUP2 MSTORE PUSH1 0x20 PUSH1 0x4 DUP3 ADD MSTORE PUSH1 0x11 PUSH1 0x24 DUP3 ADD MSTORE PUSH17 0x15DA5D1A191C985DD85B0819985A5B1959 PUSH1 0x7A SHL PUSH1 0x44 DUP3 ADD MSTORE PUSH1 0x64 ADD PUSH2 0x478 JUMP JUMPDEST POP POP JUMP JUMPDEST PUSH0 SLOAD PUSH1 0x1 PUSH1 0x1 PUSH1 0xA0 SHL SUB AND CALLER EQ PUSH2 0x5FF JUMPI PUSH1 0x40 MLOAD PUSH3 0x461BCD PUSH1 0xE5 SHL DUP2 MSTORE PUSH1 0x4 ADD PUSH2 0x478 SWAP1 PUSH2 0xE99 JUMP JUMPDEST PUSH1 0x1 PUSH1 0x1 PUSH1 0xA0 SHL SUB AND PUSH0 SWAP1 DUP2 MSTORE PUSH1 0x1 PUSH1 0x20 DUP2 SWAP1 MSTORE PUSH1 0x40 SWAP1 SWAP2 KECCAK256 DUP1 SLOAD PUSH1 0xFF NOT AND SWAP1 SWAP2 OR SWAP1 SSTORE JUMP JUMPDEST CALLER PUSH0 SWAP1 DUP2 MSTORE PUSH1 0x1 PUSH1 0x20 MSTORE PUSH1 0x40 SWAP1 KECCAK256 SLOAD PUSH1 0xFF AND PUSH2 0x694 JUMPI PUSH1 0x40 MLOAD PUSH3 0x461BCD PUSH1 0xE5 SHL DUP2 MSTORE PUSH1 0x20 PUSH1 0x4 DUP3 ADD MSTORE PUSH1 0x28 PUSH1 0x24 DUP3 ADD MSTORE PUSH32 0x4E6F7420617574686F72697A65643A205265706F72746572206E6F7420776869 PUSH1 0x44 DUP3 ADD MSTORE PUSH8 0x1D195B1A5CDD1959 PUSH1 0xC2 SHL PUSH1 0x64 DUP3 ADD MSTORE PUSH1 0x84 ADD PUSH2 0x478 JUMP JUMPDEST PUSH1 0x1 PUSH1 0x1 PUSH1 0xA0 SHL SUB DUP5 AND PUSH2 0x6E0 JUMPI PUSH1 0x40 MLOAD PUSH3 0x461BCD PUSH1 0xE5 SHL DUP2 MSTORE PUSH1 0x20 PUSH1 0x4 DUP3 ADD MSTORE PUSH1 0x13 PUSH1 0x24 DUP3 ADD MSTORE PUSH19 0x496E76616C696420626F742061646472657373 PUSH1 0x68 SHL PUSH1 0x44 DUP3 ADD MSTORE PUSH1 0x64 ADD PUSH2 0x478 JUMP JUMPDEST PUSH1 0x64 DUP2 GT ISZERO PUSH2 0x731 JUMPI PUSH1 0x40 MLOAD PUSH3 0x461BCD PUSH1 0xE5 SHL DUP2 MSTORE PUSH1 0x20 PUSH1 0x4 DUP3 ADD MSTORE PUSH1 0x18 PUSH1 0x24 DUP3 ADD MSTORE PUSH32 0x436F6E666964656E6365206D75737420626520302D3130300000000000000000 PUSH1 0x44 DUP3 ADD MSTORE PUSH1 0x64 ADD PUSH2 0x478 JUMP JUMPDEST PUSH1 0x40 DUP1 MLOAD PUSH1 0xC0 DUP2 ADD DUP3 MSTORE PUSH1 0x1 PUSH1 0x1 PUSH1 0xA0 SHL SUB DUP7 DUP2 AND DUP3 MSTORE PUSH1 0x20 DUP3 ADD DUP7 DUP2 MSTORE SWAP3 DUP3 ADD DUP6 SWAP1 MSTORE PUSH1 0x60 DUP3 ADD DUP5 SWAP1 MSTORE TIMESTAMP PUSH1 0x80 DUP4 ADD MSTORE CALLER PUSH1 0xA0 DUP4 ADD MSTORE PUSH1 0x3 DUP1 SLOAD PUSH1 0x1 DUP2 ADD DUP3 SSTORE PUSH0 SWAP2 SWAP1 SWAP2 MSTORE DUP3 MLOAD PUSH32 0xC2575A0E9E593C00F959F8C92F12DB2869C3395A3B0502D05E2516446F71F85B PUSH1 0x6 DUP4 MUL SWAP1 DUP2 ADD DUP1 SLOAD PUSH1 0x1 PUSH1 0x1 PUSH1 0xA0 SHL SUB NOT AND SWAP3 SWAP1 SWAP5 AND SWAP2 SWAP1 SWAP2 OR DUP4 SSTORE SWAP4 MLOAD SWAP3 SWAP4 SWAP1 SWAP3 DUP5 SWAP3 SWAP2 PUSH32 0xC2575A0E9E593C00F959F8C92F12DB2869C3395A3B0502D05E2516446F71F85C ADD SWAP1 PUSH2 0x7ED SWAP1 DUP3 PUSH2 0xF1E JUMP JUMPDEST POP PUSH1 0x40 DUP3 ADD MLOAD PUSH1 0x2 DUP3 ADD SWAP1 PUSH2 0x802 SWAP1 DUP3 PUSH2 0xF1E JUMP JUMPDEST POP PUSH1 0x60 DUP3 ADD MLOAD PUSH1 0x3 DUP3 ADD SSTORE PUSH1 0x80 DUP3 ADD MLOAD PUSH1 0x4 DUP1 DUP4 ADD SWAP2 SWAP1 SWAP2 SSTORE PUSH1 0xA0 SWAP1 SWAP3 ADD MLOAD PUSH1 0x5 SWAP1 SWAP2 ADD DUP1 SLOAD PUSH1 0x1 PUSH1 0x1 PUSH1 0xA0 SHL SUB NOT AND PUSH1 0x1 PUSH1 0x1 PUSH1 0xA0 SHL SUB SWAP3 DUP4 AND OR SWAP1 SSTORE DUP8 AND PUSH0 SWAP1 DUP2 MSTORE PUSH1 0x2 PUSH1 0x20 SWAP1 DUP2 MSTORE PUSH1 0x40 DUP1 DUP4 KECCAK256 DUP1 SLOAD PUSH1 0xFF NOT AND PUSH1 0x1 OR SWAP1 SSTORE CALLER DUP4 MSTORE SWAP3 SWAP1 MSTORE SWAP1 DUP2 KECCAK256 DUP1 SLOAD SWAP2 PUSH2 0x872 DUP4 PUSH2 0xFEE JUMP JUMPDEST SWAP1 SWAP2 SSTORE POP POP CALLER PUSH0 DUP2 DUP2 MSTORE PUSH1 0x5 PUSH1 0x20 SWAP1 DUP2 MSTORE PUSH1 0x40 DUP1 DUP4 KECCAK256 PUSH1 0x1 PUSH1 0x1 PUSH1 0xA0 SHL SUB DUP12 AND DUP1 DUP6 MSTORE SWAP3 MSTORE SWAP2 DUP3 SWAP1 KECCAK256 DUP1 SLOAD PUSH1 0xFF NOT AND PUSH1 0x1 OR SWAP1 SSTORE SWAP1 MLOAD DUP4 SWAP3 SWAP2 SWAP1 PUSH32 0x1E51FAC8BDE7C68D71CDD79DB2B1760B82BD12DB17012239CCE8B88EC4FB50DA SWAP1 PUSH2 0x8DB SWAP1 DUP10 SWAP1 DUP10 SWAP1 PUSH2 0x1006 JUMP JUMPDEST PUSH1 0x40 MLOAD DUP1 SWAP2 SUB SWAP1 LOG4 POP POP POP POP POP POP JUMP JUMPDEST PUSH1 0x3 SLOAD PUSH1 0x60 SWAP1 DUP1 DUP4 GT ISZERO PUSH2 0x8FD JUMPI DUP1 SWAP3 POP JUMPDEST PUSH0 DUP4 PUSH8 0xFFFFFFFFFFFFFFFF DUP2 GT ISZERO PUSH2 0x917 JUMPI PUSH2 0x917 PUSH2 0xC8E JUMP JUMPDEST PUSH1 0x40 MLOAD SWAP1 DUP1 DUP3 MSTORE DUP1 PUSH1 0x20 MUL PUSH1 0x20 ADD DUP3 ADD PUSH1 0x40 MSTORE DUP1 ISZERO PUSH2 0x98F JUMPI DUP2 PUSH1 0x20 ADD JUMPDEST PUSH2 0x97C PUSH1 0x40 MLOAD DUP1 PUSH1 0xC0 ADD PUSH1 0x40 MSTORE DUP1 PUSH0 PUSH1 0x1 PUSH1 0x1 PUSH1 0xA0 SHL SUB AND DUP2 MSTORE PUSH1 0x20 ADD PUSH1 0x60 DUP2 MSTORE PUSH1 0x20 ADD PUSH1 0x60 DUP2 MSTORE PUSH1 0x20 ADD PUSH0 DUP2 MSTORE PUSH1 0x20 ADD PUSH0 DUP2 MSTORE PUSH1 0x20 ADD PUSH0 PUSH1 0x1 PUSH1 0x1 PUSH1 0xA0 SHL SUB AND DUP2 MSTORE POP SWAP1 JUMP JUMPDEST DUP2 MSTORE PUSH1 0x20 ADD SWAP1 PUSH1 0x1 SWAP1 SUB SWAP1 DUP2 PUSH2 0x935 JUMPI SWAP1 POP JUMPDEST POP SWAP1 POP PUSH0 JUMPDEST DUP5 DUP2 LT ISZERO PUSH2 0xB6C JUMPI PUSH1 0x3 DUP2 PUSH2 0x9A9 DUP8 DUP7 PUSH2 0x1027 JUMP JUMPDEST PUSH2 0x9B3 SWAP2 SWAP1 PUSH2 0x103A JUMP JUMPDEST DUP2 SLOAD DUP2 LT PUSH2 0x9C3 JUMPI PUSH2 0x9C3 PUSH2 0x104D JUMP JUMPDEST PUSH0 SWAP2 DUP3 MSTORE PUSH1 0x20 SWAP2 DUP3 SWAP1 KECCAK256 PUSH1 0x40 DUP1 MLOAD PUSH1 0xC0 DUP2 ADD SWAP1 SWAP2 MSTORE PUSH1 0x6 SWAP1 SWAP3 MUL ADD DUP1 SLOAD PUSH1 0x1 PUSH1 0x1 PUSH1 0xA0 SHL SUB AND DUP3 MSTORE PUSH1 0x1 DUP2 ADD DUP1 SLOAD SWAP3 SWAP4 SWAP2 SWAP3 SWAP2 DUP5 ADD SWAP2 PUSH2 0xA02 SWAP1 PUSH2 0xE61 JUMP JUMPDEST DUP1 PUSH1 0x1F ADD PUSH1 0x20 DUP1 SWAP2 DIV MUL PUSH1 0x20 ADD PUSH1 0x40 MLOAD SWAP1 DUP2 ADD PUSH1 0x40 MSTORE DUP1 SWAP3 SWAP2 SWAP1 DUP2 DUP2 MSTORE PUSH1 0x20 ADD DUP3 DUP1 SLOAD PUSH2 0xA2E SWAP1 PUSH2 0xE61 JUMP JUMPDEST DUP1 ISZERO PUSH2 0xA79 JUMPI DUP1 PUSH1 0x1F LT PUSH2 0xA50 JUMPI PUSH2 0x100 DUP1 DUP4 SLOAD DIV MUL DUP4 MSTORE SWAP2 PUSH1 0x20 ADD SWAP2 PUSH2 0xA79 JUMP JUMPDEST DUP3 ADD SWAP2 SWAP1 PUSH0 MSTORE PUSH1 0x20 PUSH0 KECCAK256 SWAP1 JUMPDEST DUP2 SLOAD DUP2 MSTORE SWAP1 PUSH1 0x1 ADD SWAP1 PUSH1 0x20 ADD DUP1 DUP4 GT PUSH2 0xA5C JUMPI DUP3 SWAP1 SUB PUSH1 0x1F AND DUP3 ADD SWAP2 JUMPDEST POP POP POP POP POP DUP2 MSTORE PUSH1 0x20 ADD PUSH1 0x2 DUP3 ADD DUP1 SLOAD PUSH2 0xA92 SWAP1 PUSH2 0xE61 JUMP JUMPDEST DUP1 PUSH1 0x1F ADD PUSH1 0x20 DUP1 SWAP2 DIV MUL PUSH1 0x20 ADD PUSH1 0x40 MLOAD SWAP1 DUP2 ADD PUSH1 0x40 MSTORE DUP1 SWAP3 SWAP2 SWAP1 DUP2 DUP2 MSTORE PUSH1 0x20 ADD DUP3 DUP1 SLOAD PUSH2 0xABE SWAP1 PUSH2 0xE61 JUMP JUMPDEST DUP1 ISZERO PUSH2 0xB09 JUMPI DUP1 PUSH1 0x1F LT PUSH2 0xAE0 JUMPI PUSH2 0x100 DUP1 DUP4 SLOAD DIV MUL DUP4 MSTORE SWAP2 PUSH1 0x20 ADD SWAP2 PUSH2 0xB09 JUMP JUMPDEST DUP3 ADD SWAP2 SWAP1 PUSH0 MSTORE PUSH1 0x20 PUSH0 KECCAK256 SWAP1 JUMPDEST DUP2 SLOAD DUP2 MSTORE SWAP1 PUSH1 0x1 ADD SWAP1 PUSH1 0x20 ADD DUP1 DUP4 GT PUSH2 0xAEC JUMPI DUP3 SWAP1 SUB PUSH1 0x1F AND DUP3 ADD SWAP2 JUMPDEST POP POP POP SWAP2 DUP4 MSTORE POP POP PUSH1 0x3 DUP3 ADD SLOAD PUSH1 0x20 DUP3 ADD MSTORE PUSH1 0x4 DUP3 ADD SLOAD PUSH1 0x40 DUP3 ADD MSTORE PUSH1 0x5 SWAP1 SWAP2 ADD SLOAD PUSH1 0x1 PUSH1 0x1 PUSH1 0xA0 SHL SUB AND PUSH1 0x60 SWAP1 SWAP2 ADD MSTORE DUP3 MLOAD DUP4 SWAP1 DUP4 SWAP1 DUP2 LT PUSH2 0xB4E JUMPI PUSH2 0xB4E PUSH2 0x104D JUMP JUMPDEST PUSH1 0x20 MUL PUSH1 0x20 ADD ADD DUP2 SWAP1 MSTORE POP DUP1 DUP1 PUSH2 0xB64 SWAP1 PUSH2 0xFEE JUMP JUMPDEST SWAP2 POP POP PUSH2 0x994 JUMP JUMPDEST POP SWAP4 SWAP3 POP POP POP JUMP JUMPDEST PUSH0 PUSH1 0x20 DUP3 DUP5 SUB SLT ISZERO PUSH2 0xB84 JUMPI PUSH0 DUP1 REVERT JUMPDEST POP CALLDATALOAD SWAP2 SWAP1 POP JUMP JUMPDEST PUSH0 DUP2 MLOAD DUP1 DUP5 MSTORE PUSH0 JUMPDEST DUP2 DUP2 LT ISZERO PUSH2 0xBAF JUMPI PUSH1 0x20 DUP2 DUP6 ADD DUP2 ADD MLOAD DUP7 DUP4 ADD DUP3 ADD MSTORE ADD PUSH2 0xB93 JUMP JUMPDEST POP PUSH0 PUSH1 0x20 DUP3 DUP7 ADD ADD MSTORE PUSH1 0x20 PUSH1 0x1F NOT PUSH1 0x1F DUP4 ADD AND DUP6 ADD ADD SWAP2 POP POP SWAP3 SWAP2 POP POP JUMP JUMPDEST PUSH0 PUSH1 0x1 DUP1 PUSH1 0xA0 SHL SUB DUP1 DUP10 AND DUP4 MSTORE PUSH1 0xC0 PUSH1 0x20 DUP5 ADD MSTORE PUSH2 0xBEF PUSH1 0xC0 DUP5 ADD DUP10 PUSH2 0xB8B JUMP JUMPDEST DUP4 DUP2 SUB PUSH1 0x40 DUP6 ADD MSTORE PUSH2 0xC01 DUP2 DUP10 PUSH2 0xB8B JUMP JUMPDEST PUSH1 0x60 DUP6 ADD SWAP8 SWAP1 SWAP8 MSTORE POP PUSH1 0x80 DUP4 ADD SWAP5 SWAP1 SWAP5 MSTORE POP SWAP2 AND PUSH1 0xA0 SWAP1 SWAP2 ADD MSTORE SWAP4 SWAP3 POP POP POP JUMP JUMPDEST DUP1 CALLDATALOAD PUSH1 0x1 PUSH1 0x1 PUSH1 0xA0 SHL SUB DUP2 AND DUP2 EQ PUSH2 0xC38 JUMPI PUSH0 DUP1 REVERT JUMPDEST SWAP2 SWAP1 POP JUMP JUMPDEST PUSH0 PUSH1 0x20 DUP3 DUP5 SUB SLT ISZERO PUSH2 0xC4D JUMPI PUSH0 DUP1 REVERT JUMPDEST PUSH2 0xC56 DUP3 PUSH2 0xC22 JUMP JUMPDEST SWAP4 SWAP3 POP POP POP JUMP JUMPDEST PUSH0 DUP1 PUSH1 0x40 DUP4 DUP6 SUB SLT ISZERO PUSH2 0xC6E JUMPI PUSH0 DUP1 REVERT JUMPDEST PUSH2 0xC77 DUP4 PUSH2 0xC22 JUMP JUMPDEST SWAP2 POP PUSH2 0xC85 PUSH1 0x20 DUP5 ADD PUSH2 0xC22 JUMP JUMPDEST SWAP1 POP SWAP3 POP SWAP3 SWAP1 POP JUMP JUMPDEST PUSH4 0x4E487B71 PUSH1 0xE0 SHL PUSH0 MSTORE PUSH1 0x41 PUSH1 0x4 MSTORE PUSH1 0x24 PUSH0 REVERT JUMPDEST PUSH0 DUP3 PUSH1 0x1F DUP4 ADD SLT PUSH2 0xCB1 JUMPI PUSH0 DUP1 REVERT JUMPDEST DUP2 CALLDATALOAD PUSH8 0xFFFFFFFFFFFFFFFF DUP1 DUP3 GT ISZERO PUSH2 0xCCC JUMPI PUSH2 0xCCC PUSH2 0xC8E JUMP JUMPDEST PUSH1 0x40 MLOAD PUSH1 0x1F DUP4 ADD PUSH1 0x1F NOT SWAP1 DUP2 AND PUSH1 0x3F ADD AND DUP2 ADD SWAP1 DUP3 DUP3 GT DUP2 DUP4 LT OR ISZERO PUSH2 0xCF4 JUMPI PUSH2 0xCF4 PUSH2 0xC8E JUMP JUMPDEST DUP2 PUSH1 0x40 MSTORE DUP4 DUP2 MSTORE DUP7 PUSH1 0x20 DUP6 DUP9 ADD ADD GT ISZERO PUSH2 0xD0C JUMPI PUSH0 DUP1 REVERT JUMPDEST DUP4 PUSH1 0x20 DUP8 ADD PUSH1 0x20 DUP4 ADD CALLDATACOPY PUSH0 PUSH1 0x20 DUP6 DUP4 ADD ADD MSTORE DUP1 SWAP5 POP POP POP POP POP SWAP3 SWAP2 POP POP JUMP JUMPDEST PUSH0 DUP1 PUSH0 DUP1 PUSH1 0x80 DUP6 DUP8 SUB SLT ISZERO PUSH2 0xD3E JUMPI PUSH0 DUP1 REVERT JUMPDEST PUSH2 0xD47 DUP6 PUSH2 0xC22 JUMP JUMPDEST SWAP4 POP PUSH1 0x20 DUP6 ADD CALLDATALOAD PUSH8 0xFFFFFFFFFFFFFFFF DUP1 DUP3 GT ISZERO PUSH2 0xD63 JUMPI PUSH0 DUP1 REVERT JUMPDEST PUSH2 0xD6F DUP9 DUP4 DUP10 ADD PUSH2 0xCA2 JUMP JUMPDEST SWAP5 POP PUSH1 0x40 DUP8 ADD CALLDATALOAD SWAP2 POP DUP1 DUP3 GT ISZERO PUSH2 0xD84 JUMPI PUSH0 DUP1 REVERT JUMPDEST POP PUSH2 0xD91 DUP8 DUP3 DUP9 ADD PUSH2 0xCA2 JUMP JUMPDEST SWAP5 SWAP8 SWAP4 SWAP7 POP SWAP4 SWAP5 PUSH1 0x60 ADD CALLDATALOAD SWAP4 POP POP POP JUMP JUMPDEST PUSH0 PUSH1 0x20 DUP1 DUP4 ADD DUP2 DUP5 MSTORE DUP1 DUP6 MLOAD DUP1 DUP4 MSTORE PUSH1 0x40 SWAP3 POP DUP3 DUP7 ADD SWAP2 POP DUP3 DUP2 PUSH1 0x5 SHL DUP8 ADD ADD DUP5 DUP9 ADD PUSH0 JUMPDEST DUP4 DUP2 LT ISZERO PUSH2 0xE53 JUMPI DUP9 DUP4 SUB PUSH1 0x3F NOT ADD DUP6 MSTORE DUP2 MLOAD DUP1 MLOAD PUSH1 0x1 PUSH1 0x1 PUSH1 0xA0 SHL SUB SWAP1 DUP2 AND DUP6 MSTORE DUP9 DUP3 ADD MLOAD PUSH1 0xC0 DUP11 DUP8 ADD DUP2 SWAP1 MSTORE SWAP2 SWAP1 PUSH2 0xE03 DUP4 DUP9 ADD DUP3 PUSH2 0xB8B JUMP JUMPDEST SWAP3 POP POP DUP9 DUP4 ADD MLOAD DUP7 DUP4 SUB DUP11 DUP9 ADD MSTORE PUSH2 0xE1B DUP4 DUP3 PUSH2 0xB8B JUMP JUMPDEST PUSH1 0x60 DUP6 DUP2 ADD MLOAD SWAP1 DUP10 ADD MSTORE PUSH1 0x80 DUP1 DUP7 ADD MLOAD SWAP1 DUP10 ADD MSTORE PUSH1 0xA0 SWAP5 DUP6 ADD MLOAD SWAP1 SWAP3 AND SWAP4 SWAP1 SWAP7 ADD SWAP3 SWAP1 SWAP3 MSTORE POP SWAP5 DUP8 ADD SWAP5 SWAP3 POP SWAP1 DUP7 ADD SWAP1 PUSH1 0x1 ADD PUSH2 0xDC7 JUMP JUMPDEST POP SWAP1 SWAP9 SWAP8 POP POP POP POP POP POP POP POP JUMP JUMPDEST PUSH1 0x1 DUP2 DUP2 SHR SWAP1 DUP3 AND DUP1 PUSH2 0xE75 JUMPI PUSH1 0x7F DUP3 AND SWAP2 POP JUMPDEST PUSH1 0x20 DUP3 LT DUP2 SUB PUSH2 0xE93 JUMPI PUSH4 0x4E487B71 PUSH1 0xE0 SHL PUSH0 MSTORE PUSH1 0x22 PUSH1 0x4 MSTORE PUSH1 0x24 PUSH0 REVERT JUMPDEST POP SWAP2 SWAP1 POP JUMP JUMPDEST PUSH1 0x20 DUP1 DUP3 MSTORE PUSH1 0x1A SWAP1 DUP3 ADD MSTORE PUSH32 0x4E6F7420617574686F72697A65643A204F776E6572206F6E6C79000000000000 PUSH1 0x40 DUP3 ADD MSTORE PUSH1 0x60 ADD SWAP1 JUMP JUMPDEST PUSH1 0x1F DUP3 GT ISZERO PUSH2 0xF19 JUMPI PUSH0 DUP2 DUP2 MSTORE PUSH1 0x20 DUP2 KECCAK256 PUSH1 0x1F DUP6 ADD PUSH1 0x5 SHR DUP2 ADD PUSH1 0x20 DUP7 LT ISZERO PUSH2 0xEF6 JUMPI POP DUP1 JUMPDEST PUSH1 0x1F DUP6 ADD PUSH1 0x5 SHR DUP3 ADD SWAP2 POP JUMPDEST DUP2 DUP2 LT ISZERO PUSH2 0xF15 JUMPI DUP3 DUP2 SSTORE PUSH1 0x1 ADD PUSH2 0xF02 JUMP JUMPDEST POP POP POP JUMPDEST POP POP POP JUMP JUMPDEST DUP2 MLOAD PUSH8 0xFFFFFFFFFFFFFFFF DUP2 GT ISZERO PUSH2 0xF38 JUMPI PUSH2 0xF38 PUSH2 0xC8E JUMP JUMPDEST PUSH2 0xF4C DUP2 PUSH2 0xF46 DUP5 SLOAD PUSH2 0xE61 JUMP JUMPDEST DUP5 PUSH2 0xED0 JUMP JUMPDEST PUSH1 0x20 DUP1 PUSH1 0x1F DUP4 GT PUSH1 0x1 DUP2 EQ PUSH2 0xF7F JUMPI PUSH0 DUP5 ISZERO PUSH2 0xF68 JUMPI POP DUP6 DUP4 ADD MLOAD JUMPDEST PUSH0 NOT PUSH1 0x3 DUP7 SWAP1 SHL SHR NOT AND PUSH1 0x1 DUP6 SWAP1 SHL OR DUP6 SSTORE PUSH2 0xF15 JUMP JUMPDEST PUSH0 DUP6 DUP2 MSTORE PUSH1 0x20 DUP2 KECCAK256 PUSH1 0x1F NOT DUP7 AND SWAP2 JUMPDEST DUP3 DUP2 LT ISZERO PUSH2 0xFAD JUMPI DUP9 DUP7 ADD MLOAD DUP3 SSTORE SWAP5 DUP5 ADD SWAP5 PUSH1 0x1 SWAP1 SWAP2 ADD SWAP1 DUP5 ADD PUSH2 0xF8E JUMP JUMPDEST POP DUP6 DUP3 LT ISZERO PUSH2 0xFCA JUMPI DUP8 DUP6 ADD MLOAD PUSH0 NOT PUSH1 0x3 DUP9 SWAP1 SHL PUSH1 0xF8 AND SHR NOT AND DUP2 SSTORE JUMPDEST POP POP POP POP POP PUSH1 0x1 SWAP1 DUP2 SHL ADD SWAP1 SSTORE POP JUMP JUMPDEST PUSH4 0x4E487B71 PUSH1 0xE0 SHL PUSH0 MSTORE PUSH1 0x11 PUSH1 0x4 MSTORE PUSH1 0x24 PUSH0 REVERT JUMPDEST PUSH0 PUSH1 0x1 DUP3 ADD PUSH2 0xFFF JUMPI PUSH2 0xFFF PUSH2 0xFDA JUMP JUMPDEST POP PUSH1 0x1 ADD SWAP1 JUMP JUMPDEST PUSH1 0x40 DUP2 MSTORE PUSH0 PUSH2 0x1018 PUSH1 0x40 DUP4 ADD DUP6 PUSH2 0xB8B JUMP JUMPDEST SWAP1 POP DUP3 PUSH1 0x20 DUP4 ADD MSTORE SWAP4 SWAP3 POP POP POP JUMP JUMPDEST DUP2 DUP2 SUB DUP2 DUP2 GT ISZERO PUSH2 0x4CA JUMPI PUSH2 0x4CA PUSH2 0xFDA JUMP JUMPDEST DUP1 DUP3 ADD DUP1 DUP3 GT ISZERO PUSH2 0x4CA JUMPI PUSH2 0x4CA PUSH2 0xFDA JUMP JUMPDEST PUSH4 0x4E487B71 PUSH1 0xE0 SHL PUSH0 MSTORE PUSH1 0x32 PUSH1 0x4 MSTORE PUSH1 0x24 PUSH0 REVERT INVALID LOG2 PUSH5 0x6970667358 0x22 SLT KECCAK256 JUMPDEST 0xF7 0xBB 0xB2 POP 0xA5 DUP9 PUSH6 0x4BB6D122B647 NOT 0xCE 0xCD 0xD1 NOT MSTORE PUSH18 0x42129B8475DC627830101164736F6C634300 ADDMOD EQ STOP CALLER "},"methodIdentifiers":{"agentReputation(address)":"54de6e32","authorizeReporter(address)":"9b5b6ddc","authorizedReporters(address)":"3a41429a","deauthorizeReporter(address)":"28483673","getAgentReputation(address)":"ebeae587","getLedgerCount()":"a94cdd54","getRecentBots(uint256)":"ce5bbe1a","hasReporterLoggedBot(address,address)":"2f083470","isVerifiedBot(address)":"d2771997","ledger(uint256)":"10a7fd7b","logBot(address,string,string,uint256)":"c0d4d740","owner()":"8da5cb5b","withdraw()":"3ccfd60b"}}}}}