{"project/contracts/ApexBotRegistry.sol":{"ApexBotRegistry":{"abi":[{"anonymous":false,"inputs":[{"indexed":true,"internalType":"address","name":"botAddress","type":"address"},{"indexed":false,"internalType":"string","name":"pattern","type":"string"},{"indexed":false,"internalType":"uint256","name":"confidence","type":"uint256"},{"indexed":true,"internalType":"address","name":"reporter","type":"address"},{"indexed":true,"internalType":"uint256","name":"ledgerIndex","type":"uint256"}],"name":"BotLogged","type":"event"},{"inputs":[{"internalType":"address","name":"","type":"address"}],"name":"agentReputation","outputs":[{"internalType":"uint256","name":"","type":"uint256"}],"stateMutability":"view","type":"function"},{"inputs":[{"internalType":"address","name":"agent","type":"address"}],"name":"getAgentReputation","outputs":[{"internalType":"uint256","name":"","type":"uint256"}],"stateMutability":"view","type":"function"},{"inputs":[],"name":"getLedgerCount","outputs":[{"internalType":"uint256","name":"","type":"uint256"}],"stateMutability":"view","type":"function"},{"inputs":[{"internalType":"uint256","name":"count","type":"uint256"}],"name":"getRecentBots","outputs":[{"components":[{"internalType":"address","name":"botAddress","type":"address"},{"internalType":"string","name":"txHash","type":"string"},{"internalType":"string","name":"pattern","type":"string"},{"internalType":"uint256","name":"confidence","type":"uint256"},{"internalType":"uint256","name":"timestamp","type":"uint256"},{"internalType":"address","name":"reporter","type":"address"}],"internalType":"struct ApexBotRegistry.BotSignature[]","name":"","type":"tuple[]"}],"stateMutability":"view","type":"function"},{"inputs":[{"internalType":"address","name":"reporter","type":"address"},{"internalType":"address","name":"bot","type":"address"}],"name":"hasReporterLoggedBot","outputs":[{"internalType":"bool","name":"","type":"bool"}],"stateMutability":"view","type":"function"},{"inputs":[{"internalType":"address","name":"","type":"address"}],"name":"isVerifiedBot","outputs":[{"internalType":"bool","name":"","type":"bool"}],"stateMutability":"view","type":"function"},{"inputs":[{"internalType":"uint256","name":"","type":"uint256"}],"name":"ledger","outputs":[{"internalType":"address","name":"botAddress","type":"address"},{"internalType":"string","name":"txHash","type":"string"},{"internalType":"string","name":"pattern","type":"string"},{"internalType":"uint256","name":"confidence","type":"uint256"},{"internalType":"uint256","name":"timestamp","type":"uint256"},{"internalType":"address","name":"reporter","type":"address"}],"stateMutability":"view","type":"function"},{"inputs":[{"internalType":"address","name":"_botAddress","type":"address"},{"internalType":"string","name":"_txHash","type":"string"},{"internalType":"string","name":"_pattern","type":"string"},{"internalType":"uint256","name":"_confidence","type":"uint256"}],"name":"logBot","outputs":[],"stateMutability":"nonpayable","type":"function"}],"evm":{"bytecode":{"linkReferences":{},"object":"608060405234801561000f575f80fd5b50610cef8061001d5f395ff3fe608060405234801561000f575f80fd5b5060043610610085575f3560e01c8063c0d4d74011610058578063c0d4d7401461010f578063ce5bbe1a14610124578063d277199714610144578063ebeae58714610166575f80fd5b806310a7fd7b146100895780632f083470146100b757806354de6e32146100da578063a94cdd5414610107575b5f80fd5b61009c610097366004610803565b61018e565b6040516100ae9695949392919061085d565b60405180910390f35b6100ca6100c53660046108cc565b6102f5565b60405190151581526020016100ae565b6100f96100e83660046108fd565b60026020525f908152604090205481565b6040519081526020016100ae565b6001546100f9565b61012261011d3660046109ba565b610324565b005b610137610132366004610803565b61057a565b6040516100ae9190610a31565b6100ca6101523660046108fd565b5f6020819052908152604090205460ff1681565b6100f96101743660046108fd565b6001600160a01b03165f9081526002602052604090205490565b6001818154811061019d575f80fd5b5f918252602090912060069091020180546001820180546001600160a01b039092169350906101cb90610af0565b80601f01602080910402602001604051908101604052809291908181526020018280546101f790610af0565b80156102425780601f1061021957610100808354040283529160200191610242565b820191905f5260205f20905b81548152906001019060200180831161022557829003601f168201915b50505050509080600201805461025790610af0565b80601f016020809104026020016040519081016040528092919081815260200182805461028390610af0565b80156102ce5780601f106102a5576101008083540402835291602001916102ce565b820191905f5260205f20905b8154815290600101906020018083116102b157829003601f168201915b5050505060038301546004840154600590940154929390929091506001600160a01b031686565b6001600160a01b038083165f9081526003602090815260408083209385168352929052205460ff165b92915050565b6001600160a01b0384166103755760405162461bcd60e51b8152602060048201526013602482015272496e76616c696420626f74206164647265737360681b60448201526064015b60405180910390fd5b60648111156103c65760405162461bcd60e51b815260206004820152601860248201527f436f6e666964656e6365206d75737420626520302d3130300000000000000000604482015260640161036c565b6040805160c0810182526001600160a01b03868116825260208201868152928201859052606082018490524260808301523360a08301526001805480820182555f9190915282517fb10e2d527612073b26eecdfd717e6a320cf44b4afac2b0732d9fcbe2b7fa0cf66006830290810180546001600160a01b031916929094169190911783559351929390928492917fb10e2d527612073b26eecdfd717e6a320cf44b4afac2b0732d9fcbe2b7fa0cf701906104819082610b76565b50604082015160028201906104969082610b76565b50606082015160038201556080820151600482015560a090910151600590910180546001600160a01b0319166001600160a01b0392831617905586165f90815260208181526040808320805460ff191660011790553383526002909152812080549161050183610c46565b9091555050335f8181526003602090815260408083206001600160a01b038b16808552925291829020805460ff191660011790559051839291907f1e51fac8bde7c68d71cdd79db2b1760b82bd12db17012239cce8b88ec4fb50da9061056a9089908990610c5e565b60405180910390a4505050505050565b6001546060908083111561058c578092505b5f8367ffffffffffffffff8111156105a6576105a661091d565b60405190808252806020026020018201604052801561061e57816020015b61060b6040518060c001604052805f6001600160a01b0316815260200160608152602001606081526020015f81526020015f81526020015f6001600160a01b031681525090565b8152602001906001900390816105c45790505b5090505f5b848110156107fb576001816106388786610c7f565b6106429190610c92565b8154811061065257610652610ca5565b5f9182526020918290206040805160c0810190915260069092020180546001600160a01b03168252600181018054929391929184019161069190610af0565b80601f01602080910402602001604051908101604052809291908181526020018280546106bd90610af0565b80156107085780601f106106df57610100808354040283529160200191610708565b820191905f5260205f20905b8154815290600101906020018083116106eb57829003601f168201915b5050505050815260200160028201805461072190610af0565b80601f016020809104026020016040519081016040528092919081815260200182805461074d90610af0565b80156107985780601f1061076f57610100808354040283529160200191610798565b820191905f5260205f20905b81548152906001019060200180831161077b57829003601f168201915b505050918352505060038201546020820152600482015460408201526005909101546001600160a01b031660609091015282518390839081106107dd576107dd610ca5565b602002602001018190525080806107f390610c46565b915050610623565b509392505050565b5f60208284031215610813575f80fd5b5035919050565b5f81518084525f5b8181101561083e57602081850181015186830182015201610822565b505f602082860101526020601f19601f83011685010191505092915050565b5f60018060a01b03808916835260c0602084015261087e60c084018961081a565b8381036040850152610890818961081a565b606085019790975250608083019490945250911660a0909101529392505050565b80356001600160a01b03811681146108c7575f80fd5b919050565b5f80604083850312156108dd575f80fd5b6108e6836108b1565b91506108f4602084016108b1565b90509250929050565b5f6020828403121561090d575f80fd5b610916826108b1565b9392505050565b634e487b7160e01b5f52604160045260245ffd5b5f82601f830112610940575f80fd5b813567ffffffffffffffff8082111561095b5761095b61091d565b604051601f8301601f19908116603f011681019082821181831017156109835761098361091d565b8160405283815286602085880101111561099b575f80fd5b836020870160208301375f602085830101528094505050505092915050565b5f805f80608085870312156109cd575f80fd5b6109d6856108b1565b9350602085013567ffffffffffffffff808211156109f2575f80fd5b6109fe88838901610931565b94506040870135915080821115610a13575f80fd5b50610a2087828801610931565b949793965093946060013593505050565b5f6020808301818452808551808352604092508286019150828160051b8701018488015f5b83811015610ae257888303603f19018552815180516001600160a01b0390811685528882015160c08a87018190529190610a928388018261081a565b925050888301518683038a880152610aaa838261081a565b606085810151908901526080808601519089015260a09485015190921693909601929092525094870194925090860190600101610a56565b509098975050505050505050565b600181811c90821680610b0457607f821691505b602082108103610b2257634e487b7160e01b5f52602260045260245ffd5b50919050565b601f821115610b71575f81815260208120601f850160051c81016020861015610b4e5750805b601f850160051c820191505b81811015610b6d57828155600101610b5a565b5050505b505050565b815167ffffffffffffffff811115610b9057610b9061091d565b610ba481610b9e8454610af0565b84610b28565b602080601f831160018114610bd7575f8415610bc05750858301515b5f19600386901b1c1916600185901b178555610b6d565b5f85815260208120601f198616915b82811015610c0557888601518255948401946001909101908401610be6565b5085821015610c2257878501515f19600388901b60f8161c191681555b5050505050600190811b01905550565b634e487b7160e01b5f52601160045260245ffd5b5f60018201610c5757610c57610c32565b5060010190565b604081525f610c70604083018561081a565b90508260208301529392505050565b8181038181111561031e5761031e610c32565b8082018082111561031e5761031e610c32565b634e487b7160e01b5f52603260045260245ffdfea26469706673582212203f6454532250900b68194e15c281bd68f442f9ccefb27296b577b517a2e9c10b64736f6c63430008140033","opcodes":"PUSH1 0x80 PUSH1 0x40 MSTORE CALLVALUE DUP1 ISZERO PUSH2 0xF JUMPI PUSH0 DUP1 REVERT JUMPDEST POP PUSH2 0xCEF DUP1 PUSH2 0x1D PUSH0 CODECOPY PUSH0 RETURN INVALID PUSH1 0x80 PUSH1 0x40 MSTORE CALLVALUE DUP1 ISZERO PUSH2 0xF JUMPI PUSH0 DUP1 REVERT JUMPDEST POP PUSH1 0x4 CALLDATASIZE LT PUSH2 0x85 JUMPI PUSH0 CALLDATALOAD PUSH1 0xE0 SHR DUP1 PUSH4 0xC0D4D740 GT PUSH2 0x58 JUMPI DUP1 PUSH4 0xC0D4D740 EQ PUSH2 0x10F JUMPI DUP1 PUSH4 0xCE5BBE1A EQ PUSH2 0x124 JUMPI DUP1 PUSH4 0xD2771997 EQ PUSH2 0x144 JUMPI DUP1 PUSH4 0xEBEAE587 EQ PUSH2 0x166 JUMPI PUSH0 DUP1 REVERT JUMPDEST DUP1 PUSH4 0x10A7FD7B EQ PUSH2 0x89 JUMPI DUP1 PUSH4 0x2F083470 EQ PUSH2 0xB7 JUMPI DUP1 PUSH4 0x54DE6E32 EQ PUSH2 0xDA JUMPI DUP1 PUSH4 0xA94CDD54 EQ PUSH2 0x107 JUMPI JUMPDEST PUSH0 DUP1 REVERT JUMPDEST PUSH2 0x9C PUSH2 0x97 CALLDATASIZE PUSH1 0x4 PUSH2 0x803 JUMP JUMPDEST PUSH2 0x18E JUMP JUMPDEST PUSH1 0x40 MLOAD PUSH2 0xAE SWAP7 SWAP6 SWAP5 SWAP4 SWAP3 SWAP2 SWAP1 PUSH2 0x85D JUMP JUMPDEST PUSH1 0x40 MLOAD DUP1 SWAP2 SUB SWAP1 RETURN JUMPDEST PUSH2 0xCA PUSH2 0xC5 CALLDATASIZE PUSH1 0x4 PUSH2 0x8CC JUMP JUMPDEST PUSH2 0x2F5 JUMP JUMPDEST PUSH1 0x40 MLOAD SWAP1 ISZERO ISZERO DUP2 MSTORE PUSH1 0x20 ADD PUSH2 0xAE JUMP JUMPDEST PUSH2 0xF9 PUSH2 0xE8 CALLDATASIZE PUSH1 0x4 PUSH2 0x8FD JUMP JUMPDEST PUSH1 0x2 PUSH1 0x20 MSTORE PUSH0 SWAP1 DUP2 MSTORE PUSH1 0x40 SWAP1 KECCAK256 SLOAD DUP2 JUMP JUMPDEST PUSH1 0x40 MLOAD SWAP1 DUP2 MSTORE PUSH1 0x20 ADD PUSH2 0xAE JUMP JUMPDEST PUSH1 0x1 SLOAD PUSH2 0xF9 JUMP JUMPDEST PUSH2 0x122 PUSH2 0x11D CALLDATASIZE PUSH1 0x4 PUSH2 0x9BA JUMP JUMPDEST PUSH2 0x324 JUMP JUMPDEST STOP JUMPDEST PUSH2 0x137 PUSH2 0x132 CALLDATASIZE PUSH1 0x4 PUSH2 0x803 JUMP JUMPDEST PUSH2 0x57A JUMP JUMPDEST PUSH1 0x40 MLOAD PUSH2 0xAE SWAP2 SWAP1 PUSH2 0xA31 JUMP JUMPDEST PUSH2 0xCA PUSH2 0x152 CALLDATASIZE PUSH1 0x4 PUSH2 0x8FD JUMP JUMPDEST PUSH0 PUSH1 0x20 DUP2 SWAP1 MSTORE SWAP1 DUP2 MSTORE PUSH1 0x40 SWAP1 KECCAK256 SLOAD PUSH1 0xFF AND DUP2 JUMP JUMPDEST PUSH2 0xF9 PUSH2 0x174 CALLDATASIZE PUSH1 0x4 PUSH2 0x8FD JUMP JUMPDEST PUSH1 0x1 PUSH1 0x1 PUSH1 0xA0 SHL SUB AND PUSH0 SWAP1 DUP2 MSTORE PUSH1 0x2 PUSH1 0x20 MSTORE PUSH1 0x40 SWAP1 KECCAK256 SLOAD SWAP1 JUMP JUMPDEST PUSH1 0x1 DUP2 DUP2 SLOAD DUP2 LT PUSH2 0x19D JUMPI PUSH0 DUP1 REVERT JUMPDEST PUSH0 SWAP2 DUP3 MSTORE PUSH1 0x20 SWAP1 SWAP2 KECCAK256 PUSH1 0x6 SWAP1 SWAP2 MUL ADD DUP1 SLOAD PUSH1 0x1 DUP3 ADD DUP1 SLOAD PUSH1 0x1 PUSH1 0x1 PUSH1 0xA0 SHL SUB SWAP1 SWAP3 AND SWAP4 POP SWAP1 PUSH2 0x1CB SWAP1 PUSH2 0xAF0 JUMP JUMPDEST DUP1 PUSH1 0x1F ADD PUSH1 0x20 DUP1 SWAP2 DIV MUL PUSH1 0x20 ADD PUSH1 0x40 MLOAD SWAP1 DUP2 ADD PUSH1 0x40 MSTORE DUP1 SWAP3 SWAP2 SWAP1 DUP2 DUP2 MSTORE PUSH1 0x20 ADD DUP3 DUP1 SLOAD PUSH2 0x1F7 SWAP1 PUSH2 0xAF0 JUMP JUMPDEST DUP1 ISZERO PUSH2 0x242 JUMPI DUP1 PUSH1 0x1F LT PUSH2 0x219 JUMPI PUSH2 0x100 DUP1 DUP4 SLOAD DIV MUL DUP4 MSTORE SWAP2 PUSH1 0x20 ADD SWAP2 PUSH2 0x242 JUMP JUMPDEST DUP3 ADD SWAP2 SWAP1 PUSH0 MSTORE PUSH1 0x20 PUSH0 KECCAK256 SWAP1 JUMPDEST DUP2 SLOAD DUP2 MSTORE SWAP1 PUSH1 0x1 ADD SWAP1 PUSH1 0x20 ADD DUP1 DUP4 GT PUSH2 0x225 JUMPI DUP3 SWAP1 SUB PUSH1 0x1F AND DUP3 ADD SWAP2 JUMPDEST POP POP POP POP POP SWAP1 DUP1 PUSH1 0x2 ADD DUP1 SLOAD PUSH2 0x257 SWAP1 PUSH2 0xAF0 JUMP JUMPDEST DUP1 PUSH1 0x1F ADD PUSH1 0x20 DUP1 SWAP2 DIV MUL PUSH1 0x20 ADD PUSH1 0x40 MLOAD SWAP1 DUP2 ADD PUSH1 0x40 MSTORE DUP1 SWAP3 SWAP2 SWAP1 DUP2 DUP2 MSTORE PUSH1 0x20 ADD DUP3 DUP1 SLOAD PUSH2 0x283 SWAP1 PUSH2 0xAF0 JUMP JUMPDEST DUP1 ISZERO PUSH2 0x2CE JUMPI DUP1 PUSH1 0x1F LT PUSH2 0x2A5 JUMPI PUSH2 0x100 DUP1 DUP4 SLOAD DIV MUL DUP4 MSTORE SWAP2 PUSH1 0x20 ADD SWAP2 PUSH2 0x2CE JUMP JUMPDEST DUP3 ADD SWAP2 SWAP1 PUSH0 MSTORE PUSH1 0x20 PUSH0 KECCAK256 SWAP1 JUMPDEST DUP2 SLOAD DUP2 MSTORE SWAP1 PUSH1 0x1 ADD SWAP1 PUSH1 0x20 ADD DUP1 DUP4 GT PUSH2 0x2B1 JUMPI DUP3 SWAP1 SUB PUSH1 0x1F AND DUP3 ADD SWAP2 JUMPDEST POP POP POP POP PUSH1 0x3 DUP4 ADD SLOAD PUSH1 0x4 DUP5 ADD SLOAD PUSH1 0x5 SWAP1 SWAP5 ADD SLOAD SWAP3 SWAP4 SWAP1 SWAP3 SWAP1 SWAP2 POP PUSH1 0x1 PUSH1 0x1 PUSH1 0xA0 SHL SUB AND DUP7 JUMP JUMPDEST PUSH1 0x1 PUSH1 0x1 PUSH1 0xA0 SHL SUB DUP1 DUP4 AND PUSH0 SWAP1 DUP2 MSTORE PUSH1 0x3 PUSH1 0x20 SWAP1 DUP2 MSTORE PUSH1 0x40 DUP1 DUP4 KECCAK256 SWAP4 DUP6 AND DUP4 MSTORE SWAP3 SWAP1 MSTORE KECCAK256 SLOAD PUSH1 0xFF AND JUMPDEST SWAP3 SWAP2 POP POP JUMP JUMPDEST PUSH1 0x1 PUSH1 0x1 PUSH1 0xA0 SHL SUB DUP5 AND PUSH2 0x375 JUMPI PUSH1 0x40 MLOAD PUSH3 0x461BCD PUSH1 0xE5 SHL DUP2 MSTORE PUSH1 0x20 PUSH1 0x4 DUP3 ADD MSTORE PUSH1 0x13 PUSH1 0x24 DUP3 ADD MSTORE PUSH19 0x496E76616C696420626F742061646472657373 PUSH1 0x68 SHL PUSH1 0x44 DUP3 ADD MSTORE PUSH1 0x64 ADD JUMPDEST PUSH1 0x40 MLOAD DUP1 SWAP2 SUB SWAP1 REVERT JUMPDEST PUSH1 0x64 DUP2 GT ISZERO PUSH2 0x3C6 JUMPI PUSH1 0x40 MLOAD PUSH3 0x461BCD PUSH1 0xE5 SHL DUP2 MSTORE PUSH1 0x20 PUSH1 0x4 DUP3 ADD MSTORE PUSH1 0x18 PUSH1 0x24 DUP3 ADD MSTORE PUSH32 0x436F6E666964656E6365206D75737420626520302D3130300000000000000000 PUSH1 0x44 DUP3 ADD MSTORE PUSH1 0x64 ADD PUSH2 0x36C JUMP JUMPDEST PUSH1 0x40 DUP1 MLOAD PUSH1 0xC0 DUP2 ADD DUP3 MSTORE PUSH1 0x1 PUSH1 0x1 PUSH1 0xA0 SHL SUB DUP7 DUP2 AND DUP3 MSTORE PUSH1 0x20 DUP3 ADD DUP7 DUP2 MSTORE SWAP3 DUP3 ADD DUP6 SWAP1 MSTORE PUSH1 0x60 DUP3 ADD DUP5 SWAP1 MSTORE TIMESTAMP PUSH1 0x80 DUP4 ADD MSTORE CALLER PUSH1 0xA0 DUP4 ADD MSTORE PUSH1 0x1 DUP1 SLOAD DUP1 DUP3 ADD DUP3 SSTORE PUSH0 SWAP2 SWAP1 SWAP2 MSTORE DUP3 MLOAD PUSH32 0xB10E2D527612073B26EECDFD717E6A320CF44B4AFAC2B0732D9FCBE2B7FA0CF6 PUSH1 0x6 DUP4 MUL SWAP1 DUP2 ADD DUP1 SLOAD PUSH1 0x1 PUSH1 0x1 PUSH1 0xA0 SHL SUB NOT AND SWAP3 SWAP1 SWAP5 AND SWAP2 SWAP1 SWAP2 OR DUP4 SSTORE SWAP4 MLOAD SWAP3 SWAP4 SWAP1 SWAP3 DUP5 SWAP3 SWAP2 PUSH32 0xB10E2D527612073B26EECDFD717E6A320CF44B4AFAC2B0732D9FCBE2B7FA0CF7 ADD SWAP1 PUSH2 0x481 SWAP1 DUP3 PUSH2 0xB76 JUMP JUMPDEST POP PUSH1 0x40 DUP3 ADD MLOAD PUSH1 0x2 DUP3 ADD SWAP1 PUSH2 0x496 SWAP1 DUP3 PUSH2 0xB76 JUMP JUMPDEST POP PUSH1 0x60 DUP3 ADD MLOAD PUSH1 0x3 DUP3 ADD SSTORE PUSH1 0x80 DUP3 ADD MLOAD PUSH1 0x4 DUP3 ADD SSTORE PUSH1 0xA0 SWAP1 SWAP2 ADD MLOAD PUSH1 0x5 SWAP1 SWAP2 ADD DUP1 SLOAD PUSH1 0x1 PUSH1 0x1 PUSH1 0xA0 SHL SUB NOT AND PUSH1 0x1 PUSH1 0x1 PUSH1 0xA0 SHL SUB SWAP3 DUP4 AND OR SWAP1 SSTORE DUP7 AND PUSH0 SWAP1 DUP2 MSTORE PUSH1 0x20 DUP2 DUP2 MSTORE PUSH1 0x40 DUP1 DUP4 KECCAK256 DUP1 SLOAD PUSH1 0xFF NOT AND PUSH1 0x1 OR SWAP1 SSTORE CALLER DUP4 MSTORE PUSH1 0x2 SWAP1 SWAP2 MSTORE DUP2 KECCAK256 DUP1 SLOAD SWAP2 PUSH2 0x501 DUP4 PUSH2 0xC46 JUMP JUMPDEST SWAP1 SWAP2 SSTORE POP POP CALLER PUSH0 DUP2 DUP2 MSTORE PUSH1 0x3 PUSH1 0x20 SWAP1 DUP2 MSTORE PUSH1 0x40 DUP1 DUP4 KECCAK256 PUSH1 0x1 PUSH1 0x1 PUSH1 0xA0 SHL SUB DUP12 AND DUP1 DUP6 MSTORE SWAP3 MSTORE SWAP2 DUP3 SWAP1 KECCAK256 DUP1 SLOAD PUSH1 0xFF NOT AND PUSH1 0x1 OR SWAP1 SSTORE SWAP1 MLOAD DUP4 SWAP3 SWAP2 SWAP1 PUSH32 0x1E51FAC8BDE7C68D71CDD79DB2B1760B82BD12DB17012239CCE8B88EC4FB50DA SWAP1 PUSH2 0x56A SWAP1 DUP10 SWAP1 DUP10 SWAP1 PUSH2 0xC5E JUMP JUMPDEST PUSH1 0x40 MLOAD DUP1 SWAP2 SUB SWAP1 LOG4 POP POP POP POP POP POP JUMP JUMPDEST PUSH1 0x1 SLOAD PUSH1 0x60 SWAP1 DUP1 DUP4 GT ISZERO PUSH2 0x58C JUMPI DUP1 SWAP3 POP JUMPDEST PUSH0 DUP4 PUSH8 0xFFFFFFFFFFFFFFFF DUP2 GT ISZERO PUSH2 0x5A6 JUMPI PUSH2 0x5A6 PUSH2 0x91D JUMP JUMPDEST PUSH1 0x40 MLOAD SWAP1 DUP1 DUP3 MSTORE DUP1 PUSH1 0x20 MUL PUSH1 0x20 ADD DUP3 ADD PUSH1 0x40 MSTORE DUP1 ISZERO PUSH2 0x61E JUMPI DUP2 PUSH1 0x20 ADD JUMPDEST PUSH2 0x60B PUSH1 0x40 MLOAD DUP1 PUSH1 0xC0 ADD PUSH1 0x40 MSTORE DUP1 PUSH0 PUSH1 0x1 PUSH1 0x1 PUSH1 0xA0 SHL SUB AND DUP2 MSTORE PUSH1 0x20 ADD PUSH1 0x60 DUP2 MSTORE PUSH1 0x20 ADD PUSH1 0x60 DUP2 MSTORE PUSH1 0x20 ADD PUSH0 DUP2 MSTORE PUSH1 0x20 ADD PUSH0 DUP2 MSTORE PUSH1 0x20 ADD PUSH0 PUSH1 0x1 PUSH1 0x1 PUSH1 0xA0 SHL SUB AND DUP2 MSTORE POP SWAP1 JUMP JUMPDEST DUP2 MSTORE PUSH1 0x20 ADD SWAP1 PUSH1 0x1 SWAP1 SUB SWAP1 DUP2 PUSH2 0x5C4 JUMPI SWAP1 POP JUMPDEST POP SWAP1 POP PUSH0 JUMPDEST DUP5 DUP2 LT ISZERO PUSH2 0x7FB JUMPI PUSH1 0x1 DUP2 PUSH2 0x638 DUP8 DUP7 PUSH2 0xC7F JUMP JUMPDEST PUSH2 0x642 SWAP2 SWAP1 PUSH2 0xC92 JUMP JUMPDEST DUP2 SLOAD DUP2 LT PUSH2 0x652 JUMPI PUSH2 0x652 PUSH2 0xCA5 JUMP JUMPDEST PUSH0 SWAP2 DUP3 MSTORE PUSH1 0x20 SWAP2 DUP3 SWAP1 KECCAK256 PUSH1 0x40 DUP1 MLOAD PUSH1 0xC0 DUP2 ADD SWAP1 SWAP2 MSTORE PUSH1 0x6 SWAP1 SWAP3 MUL ADD DUP1 SLOAD PUSH1 0x1 PUSH1 0x1 PUSH1 0xA0 SHL SUB AND DUP3 MSTORE PUSH1 0x1 DUP2 ADD DUP1 SLOAD SWAP3 SWAP4 SWAP2 SWAP3 SWAP2 DUP5 ADD SWAP2 PUSH2 0x691 SWAP1 PUSH2 0xAF0 JUMP JUMPDEST DUP1 PUSH1 0x1F ADD PUSH1 0x20 DUP1 SWAP2 DIV MUL PUSH1 0x20 ADD PUSH1 0x40 MLOAD SWAP1 DUP2 ADD PUSH1 0x40 MSTORE DUP1 SWAP3 SWAP2 SWAP1 DUP2 DUP2 MSTORE PUSH1 0x20 ADD DUP3 DUP1 SLOAD PUSH2 0x6BD SWAP1 PUSH2 0xAF0 JUMP JUMPDEST DUP1 ISZERO PUSH2 0x708 JUMPI DUP1 PUSH1 0x1F LT PUSH2 0x6DF JUMPI PUSH2 0x100 DUP1 DUP4 SLOAD DIV MUL DUP4 MSTORE SWAP2 PUSH1 0x20 ADD SWAP2 PUSH2 0x708 JUMP JUMPDEST DUP3 ADD SWAP2 SWAP1 PUSH0 MSTORE PUSH1 0x20 PUSH0 KECCAK256 SWAP1 JUMPDEST DUP2 SLOAD DUP2 MSTORE SWAP1 PUSH1 0x1 ADD SWAP1 PUSH1 0x20 ADD DUP1 DUP4 GT PUSH2 0x6EB JUMPI DUP3 SWAP1 SUB PUSH1 0x1F AND DUP3 ADD SWAP2 JUMPDEST POP POP POP POP POP DUP2 MSTORE PUSH1 0x20 ADD PUSH1 0x2 DUP3 ADD DUP1 SLOAD PUSH2 0x721 SWAP1 PUSH2 0xAF0 JUMP JUMPDEST DUP1 PUSH1 0x1F ADD PUSH1 0x20 DUP1 SWAP2 DIV MUL PUSH1 0x20 ADD PUSH1 0x40 MLOAD SWAP1 DUP2 ADD PUSH1 0x40 MSTORE DUP1 SWAP3 SWAP2 SWAP1 DUP2 DUP2 MSTORE PUSH1 0x20 ADD DUP3 DUP1 SLOAD PUSH2 0x74D SWAP1 PUSH2 0xAF0 JUMP JUMPDEST DUP1 ISZERO PUSH2 0x798 JUMPI DUP1 PUSH1 0x1F LT PUSH2 0x76F JUMPI PUSH2 0x100 DUP1 DUP4 SLOAD DIV MUL DUP4 MSTORE SWAP2 PUSH1 0x20 ADD SWAP2 PUSH2 0x798 JUMP JUMPDEST DUP3 ADD SWAP2 SWAP1 PUSH0 MSTORE PUSH1 0x20 PUSH0 KECCAK256 SWAP1 JUMPDEST DUP2 SLOAD DUP2 MSTORE SWAP1 PUSH1 0x1 ADD SWAP1 PUSH1 0x20 ADD DUP1 DUP4 GT PUSH2 0x77B JUMPI DUP3 SWAP1 SUB PUSH1 0x1F AND DUP3 ADD SWAP2 JUMPDEST POP POP POP SWAP2 DUP4 MSTORE POP POP PUSH1 0x3 DUP3 ADD SLOAD PUSH1 0x20 DUP3 ADD MSTORE PUSH1 0x4 DUP3 ADD SLOAD PUSH1 0x40 DUP3 ADD MSTORE PUSH1 0x5 SWAP1 SWAP2 ADD SLOAD PUSH1 0x1 PUSH1 0x1 PUSH1 0xA0 SHL SUB AND PUSH1 0x60 SWAP1 SWAP2 ADD MSTORE DUP3 MLOAD DUP4 SWAP1 DUP4 SWAP1 DUP2 LT PUSH2 0x7DD JUMPI PUSH2 0x7DD PUSH2 0xCA5 JUMP JUMPDEST PUSH1 0x20 MUL PUSH1 0x20 ADD ADD DUP2 SWAP1 MSTORE POP DUP1 DUP1 PUSH2 0x7F3 SWAP1 PUSH2 0xC46 JUMP JUMPDEST SWAP2 POP POP PUSH2 0x623 JUMP JUMPDEST POP SWAP4 SWAP3 POP POP POP JUMP JUMPDEST PUSH0 PUSH1 0x20 DUP3 DUP5 SUB SLT ISZERO PUSH2 0x813 JUMPI PUSH0 DUP1 REVERT JUMPDEST POP CALLDATALOAD SWAP2 SWAP1 POP JUMP JUMPDEST PUSH0 DUP2 MLOAD DUP1 DUP5 MSTORE PUSH0 JUMPDEST DUP2 DUP2 LT ISZERO PUSH2 0x83E JUMPI PUSH1 0x20 DUP2 DUP6 ADD DUP2 ADD MLOAD DUP7 DUP4 ADD DUP3 ADD MSTORE ADD PUSH2 0x822 JUMP JUMPDEST POP PUSH0 PUSH1 0x20 DUP3 DUP7 ADD ADD MSTORE PUSH1 0x20 PUSH1 0x1F NOT PUSH1 0x1F DUP4 ADD AND DUP6 ADD ADD SWAP2 POP POP SWAP3 SWAP2 POP POP JUMP JUMPDEST PUSH0 PUSH1 0x1 DUP1 PUSH1 0xA0 SHL SUB DUP1 DUP10 AND DUP4 MSTORE PUSH1 0xC0 PUSH1 0x20 DUP5 ADD MSTORE PUSH2 0x87E PUSH1 0xC0 DUP5 ADD DUP10 PUSH2 0x81A JUMP JUMPDEST DUP4 DUP2 SUB PUSH1 0x40 DUP6 ADD MSTORE PUSH2 0x890 DUP2 DUP10 PUSH2 0x81A JUMP JUMPDEST PUSH1 0x60 DUP6 ADD SWAP8 SWAP1 SWAP8 MSTORE POP PUSH1 0x80 DUP4 ADD SWAP5 SWAP1 SWAP5 MSTORE POP SWAP2 AND PUSH1 0xA0 SWAP1 SWAP2 ADD MSTORE SWAP4 SWAP3 POP POP POP JUMP JUMPDEST DUP1 CALLDATALOAD PUSH1 0x1 PUSH1 0x1 PUSH1 0xA0 SHL SUB DUP2 AND DUP2 EQ PUSH2 0x8C7 JUMPI PUSH0 DUP1 REVERT JUMPDEST SWAP2 SWAP1 POP JUMP JUMPDEST PUSH0 DUP1 PUSH1 0x40 DUP4 DUP6 SUB SLT ISZERO PUSH2 0x8DD JUMPI PUSH0 DUP1 REVERT JUMPDEST PUSH2 0x8E6 DUP4 PUSH2 0x8B1 JUMP JUMPDEST SWAP2 POP PUSH2 0x8F4 PUSH1 0x20 DUP5 ADD PUSH2 0x8B1 JUMP JUMPDEST SWAP1 POP SWAP3 POP SWAP3 SWAP1 POP JUMP JUMPDEST PUSH0 PUSH1 0x20 DUP3 DUP5 SUB SLT ISZERO PUSH2 0x90D JUMPI PUSH0 DUP1 REVERT JUMPDEST PUSH2 0x916 DUP3 PUSH2 0x8B1 JUMP JUMPDEST SWAP4 SWAP3 POP POP POP JUMP JUMPDEST PUSH4 0x4E487B71 PUSH1 0xE0 SHL PUSH0 MSTORE PUSH1 0x41 PUSH1 0x4 MSTORE PUSH1 0x24 PUSH0 REVERT JUMPDEST PUSH0 DUP3 PUSH1 0x1F DUP4 ADD SLT PUSH2 0x940 JUMPI PUSH0 DUP1 REVERT JUMPDEST DUP2 CALLDATALOAD PUSH8 0xFFFFFFFFFFFFFFFF DUP1 DUP3 GT ISZERO PUSH2 0x95B JUMPI PUSH2 0x95B PUSH2 0x91D JUMP JUMPDEST PUSH1 0x40 MLOAD PUSH1 0x1F DUP4 ADD PUSH1 0x1F NOT SWAP1 DUP2 AND PUSH1 0x3F ADD AND DUP2 ADD SWAP1 DUP3 DUP3 GT DUP2 DUP4 LT OR ISZERO PUSH2 0x983 JUMPI PUSH2 0x983 PUSH2 0x91D JUMP JUMPDEST DUP2 PUSH1 0x40 MSTORE DUP4 DUP2 MSTORE DUP7 PUSH1 0x20 DUP6 DUP9 ADD ADD GT ISZERO PUSH2 0x99B JUMPI PUSH0 DUP1 REVERT JUMPDEST DUP4 PUSH1 0x20 DUP8 ADD PUSH1 0x20 DUP4 ADD CALLDATACOPY PUSH0 PUSH1 0x20 DUP6 DUP4 ADD ADD MSTORE DUP1 SWAP5 POP POP POP POP POP SWAP3 SWAP2 POP POP JUMP JUMPDEST PUSH0 DUP1 PUSH0 DUP1 PUSH1 0x80 DUP6 DUP8 SUB SLT ISZERO PUSH2 0x9CD JUMPI PUSH0 DUP1 REVERT JUMPDEST PUSH2 0x9D6 DUP6 PUSH2 0x8B1 JUMP JUMPDEST SWAP4 POP PUSH1 0x20 DUP6 ADD CALLDATALOAD PUSH8 0xFFFFFFFFFFFFFFFF DUP1 DUP3 GT ISZERO PUSH2 0x9F2 JUMPI PUSH0 DUP1 REVERT JUMPDEST PUSH2 0x9FE DUP9 DUP4 DUP10 ADD PUSH2 0x931 JUMP JUMPDEST SWAP5 POP PUSH1 0x40 DUP8 ADD CALLDATALOAD SWAP2 POP DUP1 DUP3 GT ISZERO PUSH2 0xA13 JUMPI PUSH0 DUP1 REVERT JUMPDEST POP PUSH2 0xA20 DUP8 DUP3 DUP9 ADD PUSH2 0x931 JUMP JUMPDEST SWAP5 SWAP8 SWAP4 SWAP7 POP SWAP4 SWAP5 PUSH1 0x60 ADD CALLDATALOAD SWAP4 POP POP POP JUMP JUMPDEST PUSH0 PUSH1 0x20 DUP1 DUP4 ADD DUP2 DUP5 MSTORE DUP1 DUP6 MLOAD DUP1 DUP4 MSTORE PUSH1 0x40 SWAP3 POP DUP3 DUP7 ADD SWAP2 POP DUP3 DUP2 PUSH1 0x5 SHL DUP8 ADD ADD DUP5 DUP9 ADD PUSH0 JUMPDEST DUP4 DUP2 LT ISZERO PUSH2 0xAE2 JUMPI DUP9 DUP4 SUB PUSH1 0x3F NOT ADD DUP6 MSTORE DUP2 MLOAD DUP1 MLOAD PUSH1 0x1 PUSH1 0x1 PUSH1 0xA0 SHL SUB SWAP1 DUP2 AND DUP6 MSTORE DUP9 DUP3 ADD MLOAD PUSH1 0xC0 DUP11 DUP8 ADD DUP2 SWAP1 MSTORE SWAP2 SWAP1 PUSH2 0xA92 DUP4 DUP9 ADD DUP3 PUSH2 0x81A JUMP JUMPDEST SWAP3 POP POP DUP9 DUP4 ADD MLOAD DUP7 DUP4 SUB DUP11 DUP9 ADD MSTORE PUSH2 0xAAA DUP4 DUP3 PUSH2 0x81A JUMP JUMPDEST PUSH1 0x60 DUP6 DUP2 ADD MLOAD SWAP1 DUP10 ADD MSTORE PUSH1 0x80 DUP1 DUP7 ADD MLOAD SWAP1 DUP10 ADD MSTORE PUSH1 0xA0 SWAP5 DUP6 ADD MLOAD SWAP1 SWAP3 AND SWAP4 SWAP1 SWAP7 ADD SWAP3 SWAP1 SWAP3 MSTORE POP SWAP5 DUP8 ADD SWAP5 SWAP3 POP SWAP1 DUP7 ADD SWAP1 PUSH1 0x1 ADD PUSH2 0xA56 JUMP JUMPDEST POP SWAP1 SWAP9 SWAP8 POP POP POP POP POP POP POP POP JUMP JUMPDEST PUSH1 0x1 DUP2 DUP2 SHR SWAP1 DUP3 AND DUP1 PUSH2 0xB04 JUMPI PUSH1 0x7F DUP3 AND SWAP2 POP JUMPDEST PUSH1 0x20 DUP3 LT DUP2 SUB PUSH2 0xB22 JUMPI PUSH4 0x4E487B71 PUSH1 0xE0 SHL PUSH0 MSTORE PUSH1 0x22 PUSH1 0x4 MSTORE PUSH1 0x24 PUSH0 REVERT JUMPDEST POP SWAP2 SWAP1 POP JUMP JUMPDEST PUSH1 0x1F DUP3 GT ISZERO PUSH2 0xB71 JUMPI PUSH0 DUP2 DUP2 MSTORE PUSH1 0x20 DUP2 KECCAK256 PUSH1 0x1F DUP6 ADD PUSH1 0x5 SHR DUP2 ADD PUSH1 0x20 DUP7 LT ISZERO PUSH2 0xB4E JUMPI POP DUP1 JUMPDEST PUSH1 0x1F DUP6 ADD PUSH1 0x5 SHR DUP3 ADD SWAP2 POP JUMPDEST DUP2 DUP2 LT ISZERO PUSH2 0xB6D JUMPI DUP3 DUP2 SSTORE PUSH1 0x1 ADD PUSH2 0xB5A JUMP JUMPDEST POP POP POP JUMPDEST POP POP POP JUMP JUMPDEST DUP2 MLOAD PUSH8 0xFFFFFFFFFFFFFFFF DUP2 GT ISZERO PUSH2 0xB90 JUMPI PUSH2 0xB90 PUSH2 0x91D JUMP JUMPDEST PUSH2 0xBA4 DUP2 PUSH2 0xB9E DUP5 SLOAD PUSH2 0xAF0 JUMP JUMPDEST DUP5 PUSH2 0xB28 JUMP JUMPDEST PUSH1 0x20 DUP1 PUSH1 0x1F DUP4 GT PUSH1 0x1 DUP2 EQ PUSH2 0xBD7 JUMPI PUSH0 DUP5 ISZERO PUSH2 0xBC0 JUMPI POP DUP6 DUP4 ADD MLOAD JUMPDEST PUSH0 NOT PUSH1 0x3 DUP7 SWAP1 SHL SHR NOT AND PUSH1 0x1 DUP6 SWAP1 SHL OR DUP6 SSTORE PUSH2 0xB6D JUMP JUMPDEST PUSH0 DUP6 DUP2 MSTORE PUSH1 0x20 DUP2 KECCAK256 PUSH1 0x1F NOT DUP7 AND SWAP2 JUMPDEST DUP3 DUP2 LT ISZERO PUSH2 0xC05 JUMPI DUP9 DUP7 ADD MLOAD DUP3 SSTORE SWAP5 DUP5 ADD SWAP5 PUSH1 0x1 SWAP1 SWAP2 ADD SWAP1 DUP5 ADD PUSH2 0xBE6 JUMP JUMPDEST POP DUP6 DUP3 LT ISZERO PUSH2 0xC22 JUMPI DUP8 DUP6 ADD MLOAD PUSH0 NOT PUSH1 0x3 DUP9 SWAP1 SHL PUSH1 0xF8 AND SHR NOT AND DUP2 SSTORE JUMPDEST POP POP POP POP POP PUSH1 0x1 SWAP1 DUP2 SHL ADD SWAP1 SSTORE POP JUMP JUMPDEST PUSH4 0x4E487B71 PUSH1 0xE0 SHL PUSH0 MSTORE PUSH1 0x11 PUSH1 0x4 MSTORE PUSH1 0x24 PUSH0 REVERT JUMPDEST PUSH0 PUSH1 0x1 DUP3 ADD PUSH2 0xC57 JUMPI PUSH2 0xC57 PUSH2 0xC32 JUMP JUMPDEST POP PUSH1 0x1 ADD SWAP1 JUMP JUMPDEST PUSH1 0x40 DUP2 MSTORE PUSH0 PUSH2 0xC70 PUSH1 0x40 DUP4 ADD DUP6 PUSH2 0x81A JUMP JUMPDEST SWAP1 POP DUP3 PUSH1 0x20 DUP4 ADD MSTORE SWAP4 SWAP3 POP POP POP JUMP JUMPDEST DUP2 DUP2 SUB DUP2 DUP2 GT ISZERO PUSH2 0x31E JUMPI PUSH2 0x31E PUSH2 0xC32 JUMP JUMPDEST DUP1 DUP3 ADD DUP1 DUP3 GT ISZERO PUSH2 0x31E JUMPI PUSH2 0x31E PUSH2 0xC32 JUMP JUMPDEST PUSH4 0x4E487B71 PUSH1 0xE0 SHL PUSH0 MSTORE PUSH1 0x32 PUSH1 0x4 MSTORE PUSH1 0x24 PUSH0 REVERT INVALID LOG2 PUSH5 0x6970667358 0x22 SLT KECCAK256 EXTCODEHASH PUSH5 0x5453225090 SIGNEXTEND PUSH9 0x194E15C281BD68F442 0xF9 0xCC 0xEF 0xB2 PUSH19 0x96B577B517A2E9C10B64736F6C634300081400 CALLER "},"methodIdentifiers":{"agentReputation(address)":"54de6e32","getAgentReputation(address)":"ebeae587","getLedgerCount()":"a94cdd54","getRecentBots(uint256)":"ce5bbe1a","hasReporterLoggedBot(address,address)":"2f083470","isVerifiedBot(address)":"d2771997","ledger(uint256)":"10a7fd7b","logBot(address,string,string,uint256)":"c0d4d740"}}}}}