{
  "_format": "hh3-artifact-1",
  "contractName": "ApexBotRegistry",
  "sourceName": "contracts/ApexBotRegistry.sol",
  "abi": [
    {
      "anonymous": false,
      "inputs": [
        {
          "indexed": true,
          "internalType": "address",
          "name": "botAddress",
          "type": "address"
        },
        {
          "indexed": false,
          "internalType": "string",
          "name": "pattern",
          "type": "string"
        },
        {
          "indexed": false,
          "internalType": "uint256",
          "name": "confidence",
          "type": "uint256"
        },
        {
          "indexed": true,
          "internalType": "address",
          "name": "reporter",
          "type": "address"
        },
        {
          "indexed": true,
          "internalType": "uint256",
          "name": "ledgerIndex",
          "type": "uint256"
        }
      ],
      "name": "BotLogged",
      "type": "event"
    },
    {
      "inputs": [
        {
          "internalType": "address",
          "name": "",
          "type": "address"
        }
      ],
      "name": "agentReputation",
      "outputs": [
        {
          "internalType": "uint256",
          "name": "",
          "type": "uint256"
        }
      ],
      "stateMutability": "view",
      "type": "function"
    },
    {
      "inputs": [
        {
          "internalType": "address",
          "name": "agent",
          "type": "address"
        }
      ],
      "name": "getAgentReputation",
      "outputs": [
        {
          "internalType": "uint256",
          "name": "",
          "type": "uint256"
        }
      ],
      "stateMutability": "view",
      "type": "function"
    },
    {
      "inputs": [],
      "name": "getLedgerCount",
      "outputs": [
        {
          "internalType": "uint256",
          "name": "",
          "type": "uint256"
        }
      ],
      "stateMutability": "view",
      "type": "function"
    },
    {
      "inputs": [
        {
          "internalType": "uint256",
          "name": "count",
          "type": "uint256"
        }
      ],
      "name": "getRecentBots",
      "outputs": [
        {
          "components": [
            {
              "internalType": "address",
              "name": "botAddress",
              "type": "address"
            },
            {
              "internalType": "string",
              "name": "txHash",
              "type": "string"
            },
            {
              "internalType": "string",
              "name": "pattern",
              "type": "string"
            },
            {
              "internalType": "uint256",
              "name": "confidence",
              "type": "uint256"
            },
            {
              "internalType": "uint256",
              "name": "timestamp",
              "type": "uint256"
            },
            {
              "internalType": "address",
              "name": "reporter",
              "type": "address"
            }
          ],
          "internalType": "struct ApexBotRegistry.BotSignature[]",
          "name": "",
          "type": "tuple[]"
        }
      ],
      "stateMutability": "view",
      "type": "function"
    },
    {
      "inputs": [
        {
          "internalType": "address",
          "name": "reporter",
          "type": "address"
        },
        {
          "internalType": "address",
          "name": "bot",
          "type": "address"
        }
      ],
      "name": "hasReporterLoggedBot",
      "outputs": [
        {
          "internalType": "bool",
          "name": "",
          "type": "bool"
        }
      ],
      "stateMutability": "view",
      "type": "function"
    },
    {
      "inputs": [
        {
          "internalType": "address",
          "name": "",
          "type": "address"
        }
      ],
      "name": "isVerifiedBot",
      "outputs": [
        {
          "internalType": "bool",
          "name": "",
          "type": "bool"
        }
      ],
      "stateMutability": "view",
      "type": "function"
    },
    {
      "inputs": [
        {
          "internalType": "uint256",
          "name": "",
          "type": "uint256"
        }
      ],
      "name": "ledger",
      "outputs": [
        {
          "internalType": "address",
          "name": "botAddress",
          "type": "address"
        },
        {
          "internalType": "string",
          "name": "txHash",
          "type": "string"
        },
        {
          "internalType": "string",
          "name": "pattern",
          "type": "string"
        },
        {
          "internalType": "uint256",
          "name": "confidence",
          "type": "uint256"
        },
        {
          "internalType": "uint256",
          "name": "timestamp",
          "type": "uint256"
        },
        {
          "internalType": "address",
          "name": "reporter",
          "type": "address"
        }
      ],
      "stateMutability": "view",
      "type": "function"
    },
    {
      "inputs": [
        {
          "internalType": "address",
          "name": "_botAddress",
          "type": "address"
        },
        {
          "internalType": "string",
          "name": "_txHash",
          "type": "string"
        },
        {
          "internalType": "string",
          "name": "_pattern",
          "type": "string"
        },
        {
          "internalType": "uint256",
          "name": "_confidence",
          "type": "uint256"
        }
      ],
      "name": "logBot",
      "outputs": [],
      "stateMutability": "nonpayable",
      "type": "function"
    }
  ],
  "bytecode": "0x608060405234801561000f575f80fd5b50610cef8061001d5f395ff3fe608060405234801561000f575f80fd5b5060043610610085575f3560e01c8063c0d4d74011610058578063c0d4d7401461010f578063ce5bbe1a14610124578063d277199714610144578063ebeae58714610166575f80fd5b806310a7fd7b146100895780632f083470146100b757806354de6e32146100da578063a94cdd5414610107575b5f80fd5b61009c610097366004610803565b61018e565b6040516100ae9695949392919061085d565b60405180910390f35b6100ca6100c53660046108cc565b6102f5565b60405190151581526020016100ae565b6100f96100e83660046108fd565b60026020525f908152604090205481565b6040519081526020016100ae565b6001546100f9565b61012261011d3660046109ba565b610324565b005b610137610132366004610803565b61057a565b6040516100ae9190610a31565b6100ca6101523660046108fd565b5f6020819052908152604090205460ff1681565b6100f96101743660046108fd565b6001600160a01b03165f9081526002602052604090205490565b6001818154811061019d575f80fd5b5f918252602090912060069091020180546001820180546001600160a01b039092169350906101cb90610af0565b80601f01602080910402602001604051908101604052809291908181526020018280546101f790610af0565b80156102425780601f1061021957610100808354040283529160200191610242565b820191905f5260205f20905b81548152906001019060200180831161022557829003601f168201915b50505050509080600201805461025790610af0565b80601f016020809104026020016040519081016040528092919081815260200182805461028390610af0565b80156102ce5780601f106102a5576101008083540402835291602001916102ce565b820191905f5260205f20905b8154815290600101906020018083116102b157829003601f168201915b5050505060038301546004840154600590940154929390929091506001600160a01b031686565b6001600160a01b038083165f9081526003602090815260408083209385168352929052205460ff165b92915050565b6001600160a01b0384166103755760405162461bcd60e51b8152602060048201526013602482015272496e76616c696420626f74206164647265737360681b60448201526064015b60405180910390fd5b60648111156103c65760405162461bcd60e51b815260206004820152601860248201527f436f6e666964656e6365206d75737420626520302d3130300000000000000000604482015260640161036c565b6040805160c0810182526001600160a01b03868116825260208201868152928201859052606082018490524260808301523360a08301526001805480820182555f9190915282517fb10e2d527612073b26eecdfd717e6a320cf44b4afac2b0732d9fcbe2b7fa0cf66006830290810180546001600160a01b031916929094169190911783559351929390928492917fb10e2d527612073b26eecdfd717e6a320cf44b4afac2b0732d9fcbe2b7fa0cf701906104819082610b76565b50604082015160028201906104969082610b76565b50606082015160038201556080820151600482015560a090910151600590910180546001600160a01b0319166001600160a01b0392831617905586165f90815260208181526040808320805460ff191660011790553383526002909152812080549161050183610c46565b9091555050335f8181526003602090815260408083206001600160a01b038b16808552925291829020805460ff191660011790559051839291907f1e51fac8bde7c68d71cdd79db2b1760b82bd12db17012239cce8b88ec4fb50da9061056a9089908990610c5e565b60405180910390a4505050505050565b6001546060908083111561058c578092505b5f8367ffffffffffffffff8111156105a6576105a661091d565b60405190808252806020026020018201604052801561061e57816020015b61060b6040518060c001604052805f6001600160a01b0316815260200160608152602001606081526020015f81526020015f81526020015f6001600160a01b031681525090565b8152602001906001900390816105c45790505b5090505f5b848110156107fb576001816106388786610c7f565b6106429190610c92565b8154811061065257610652610ca5565b5f9182526020918290206040805160c0810190915260069092020180546001600160a01b03168252600181018054929391929184019161069190610af0565b80601f01602080910402602001604051908101604052809291908181526020018280546106bd90610af0565b80156107085780601f106106df57610100808354040283529160200191610708565b820191905f5260205f20905b8154815290600101906020018083116106eb57829003601f168201915b5050505050815260200160028201805461072190610af0565b80601f016020809104026020016040519081016040528092919081815260200182805461074d90610af0565b80156107985780601f1061076f57610100808354040283529160200191610798565b820191905f5260205f20905b81548152906001019060200180831161077b57829003601f168201915b505050918352505060038201546020820152600482015460408201526005909101546001600160a01b031660609091015282518390839081106107dd576107dd610ca5565b602002602001018190525080806107f390610c46565b915050610623565b509392505050565b5f60208284031215610813575f80fd5b5035919050565b5f81518084525f5b8181101561083e57602081850181015186830182015201610822565b505f602082860101526020601f19601f83011685010191505092915050565b5f60018060a01b03808916835260c0602084015261087e60c084018961081a565b8381036040850152610890818961081a565b606085019790975250608083019490945250911660a0909101529392505050565b80356001600160a01b03811681146108c7575f80fd5b919050565b5f80604083850312156108dd575f80fd5b6108e6836108b1565b91506108f4602084016108b1565b90509250929050565b5f6020828403121561090d575f80fd5b610916826108b1565b9392505050565b634e487b7160e01b5f52604160045260245ffd5b5f82601f830112610940575f80fd5b813567ffffffffffffffff8082111561095b5761095b61091d565b604051601f8301601f19908116603f011681019082821181831017156109835761098361091d565b8160405283815286602085880101111561099b575f80fd5b836020870160208301375f602085830101528094505050505092915050565b5f805f80608085870312156109cd575f80fd5b6109d6856108b1565b9350602085013567ffffffffffffffff808211156109f2575f80fd5b6109fe88838901610931565b94506040870135915080821115610a13575f80fd5b50610a2087828801610931565b949793965093946060013593505050565b5f6020808301818452808551808352604092508286019150828160051b8701018488015f5b83811015610ae257888303603f19018552815180516001600160a01b0390811685528882015160c08a87018190529190610a928388018261081a565b925050888301518683038a880152610aaa838261081a565b606085810151908901526080808601519089015260a09485015190921693909601929092525094870194925090860190600101610a56565b509098975050505050505050565b600181811c90821680610b0457607f821691505b602082108103610b2257634e487b7160e01b5f52602260045260245ffd5b50919050565b601f821115610b71575f81815260208120601f850160051c81016020861015610b4e5750805b601f850160051c820191505b81811015610b6d57828155600101610b5a565b5050505b505050565b815167ffffffffffffffff811115610b9057610b9061091d565b610ba481610b9e8454610af0565b84610b28565b602080601f831160018114610bd7575f8415610bc05750858301515b5f19600386901b1c1916600185901b178555610b6d565b5f85815260208120601f198616915b82811015610c0557888601518255948401946001909101908401610be6565b5085821015610c2257878501515f19600388901b60f8161c191681555b5050505050600190811b01905550565b634e487b7160e01b5f52601160045260245ffd5b5f60018201610c5757610c57610c32565b5060010190565b604081525f610c70604083018561081a565b90508260208301529392505050565b8181038181111561031e5761031e610c32565b8082018082111561031e5761031e610c32565b634e487b7160e01b5f52603260045260245ffdfea26469706673582212203f6454532250900b68194e15c281bd68f442f9ccefb27296b577b517a2e9c10b64736f6c63430008140033",
  "linkReferences": {},
  "deployedLinkReferences": {},
  "immutableReferences": {},
  "inputSourceName": "project/contracts/ApexBotRegistry.sol",
  "buildInfoId": "solc-0_8_20-b956ce811f61dd8b6aa4419ae7b0072f7ba0f645"
}